:100000000C9425020C945D020C945D020C945D022C
:100010000C945D020C945D020C945D020C945D02E4
:100020000C945D020C945D020C945A270C942D28BC
:100030000C94F0210C945D020C945D020C945D0212
:100040000C945D020C945D020C945D020C945D02B4
:100050000C945D020C9468220C945D020C945D0279
:100060000C945D020C945D020C945D020C945D0294
:100070000C945D020C945D020C945D020C945D0284
:100080000C945D020C945D020C945D020C945D0274
:100090000C945D020C945D020C945D020C945D0264
:1000A0000C945D020C945D020C945D02830054007C
:1000B000550056005F006000610000005C005D00BC
:1000C0005E00570059005A005B000000E700620024
:1000D00063005800643214783C1E000101010101E4
:1000E00001010101020202020202020202030303F1
:1000F00003030303030404040404040405050505C1
:100100000506060606060707070707080808080980
:100110000909090A0A0A0B0B0B0C0C0C0D0D0D0E2C
:100120000E0E0F0F0F1010111111121213131414C1
:10013000151516161717181819191A1A1B1B1C1D36
:100140001D1E1E1F2020212222232424252626278F
:100150002829292A2B2C2D2D2E2F303132323334C1
:1001600035363738393A3B3C3D3E3F4041424344C7
:1001700045464748494A4C4D4E4F505153545556A9
:1001800058595A5B5D5E5F616264656668696B6C55
:100190006D6F7072737577787A7B7D7E80828385D0
:1001A00087888A8C8E8F91939596989A9C9EA0A210
:1001B000A3A5A7A9ABADAFB1B3B5B7BABCBEC0C21A
:1001C000C4C6C9CBCDCFD1D4D6D8DBDDDFE2E4E7DE
:1001D000E9EBEEF0F3F5F8FAFDFF00000000000097
:1001E00000002A2B28000000000000000000000092
:1001F000000000000029000000002C1E34202122F5
:1002000024342627252E362D3738271E1F2021225D
:10021000232425263333362E37381F0405060708D6
:10022000090A0B0C0D0E0F101112131415161718C6
:10023000191A1B1C1D2F3130232D35040506070804
:10024000090A0B0C0D0E0F101112131415161718A6
:10025000191A1B1C1D2F3130354C00000000000006
:10026000000000000000000000000000000000008E
:1002700000000000000000000000000000007E0FF1
:1002800000D4FFFFFFC7000000781C036600610078
:100290006C0073006F006E00690078002F0066002C
:1002A00078003100390000001203460061006C0044
:1002B00073006F006E0069007800000004030904F9
:1002C00009025B00030100A0FA0904000001030118
:1002D00001000921110100012244000705810308E2
:1002E00000010904010002030000000921110100BE
:1002F00001222200070582032000010705030320D5
:10030000000109040200010300000009211101009D
:100310000122B6000705840320000112010002003B
:10032000000008584600000001010200010660FFBD
:100330000961A1010962150026FF00952075088159
:10034000020963150026FF00952075089102C0057B
:10035000010902A10185020901A10005091901296C
:10036000081500250195087501810205010930096C
:10037000311581257F95027508810609381581257B
:100380007F950175088106050C0A38021581257FC5
:10039000950175088106C0C005010980A10185038A
:1003A00019012AB700150126B700950175108100C3
:1003B000C0050C0901A101850419012AA00215013B
:1003C00026A002950175108100C005010906A10152
:1003D0008506050719E029E715002501950875012F
:1003E00081020507190029EF1500250195F0750117
:1003F00081020508190129059505750191029501EC
:1004000075039101C005010906A101050719E0293D
:10041000E715002501950875018102950175088190
:10042000010507190029FF150026FF00950675082C
:10043000810005081901290515002501950575019B
:100440009102950175039101C00011241FBECFEFE9
:10045000DAE0DEBFCDBF04B603FE18C08091D6023D
:100460009091D702A091D802B091D9028730904BD9
:10047000A740B04B59F41092D6021092D7021092B6
:10048000D8021092D902E0E0F8E3099511E0A0E06B
:10049000B1E0E4EDF6E502C005900D92AA3BB1078C
:1004A000D9F722E0AAEBB1E001C01D92A63DB20748
:1004B000E1F70E94CF110C94F82A0C9400008111EE
:1004C00011C0653078F4443068F484E0689FF0012E
:1004D0001124E40FF11DEE0FFF1FE455FF4F85912E
:1004E0009491089581E090E0089581E0089581E07D
:1004F00008950E947502089581E0089581E00895AD
:1005000081E008950E9480020895089508950E9450
:100510008502089508950895A6E0B0E0E2E9F2E0CA
:100520000C941F2A49835A839E833091C10189818B
:100530009A8131111AC03E81311599F0211589F047
:100540000E945C08182F682F89819A810E943908BF
:1005500069817A81812F0E947B0F2696E3E00C94BB
:100560003B2A0E944A08182FF3CF0E945C08698139
:100570007A81F1CFFC01262F408151816281738104
:10058000848195810E948C020895CF93DF93D82FA8
:10059000C92F61E00E94BA026D2F7C2F0E94770262
:1005A000811549F061E08D2F9C2F0E94BA026D2FBA
:1005B0007C2F0E947902DF91CF9108950F931F93B2
:1005C000CF93DF93D82FC92F60E00E94BA028C012D
:1005D0006D2F7C2F0E9486026D2F7C2FC8010E94F8
:1005E0008702DF91CF911F910F91089591E001C093
:1005F000990F8A95EAF7892F0E947B070895CF9378
:10060000C82F81E00C2E01C0880F0A94EAF70E94DF
:10061000D70C8C2F0E94F602CF91089581E00895A7
:1006200081E008950E940E030895CF93C82F0E9481
:1006300027078C2F0E9410038C2F0E9412032FEF8C
:1006400084E39CE0215080409040E1F700C000002E
:10065000CF91089581E00E9415030E948C22089595
:1006600080E00E9415030E94B02208950F931F930B
:10067000CF93DF938C0161E00E94BA02EC01F80194
:10068000858181110E94A316B801CE010E947E02CD
:10069000811509F457C0B801CE010E94820281156C
:1006A00009F450C0B801CE010E94431E811509F41F
:1006B00049C0B801CE010E945B1D811509F442C0FA
:1006C000B801CE010E9494188115E1F1B801CE0164
:1006D0000E9469188115B1F1B801CE010E94EB1199
:1006E000811581F1B801CE010E949D1D811551F146
:1006F000B801CE010E947E10811521F1F80185819B
:10070000811581F0CA35FCE7DF0739F178F4C13093
:10071000ECE7DE07F9F0C330FCE7DF07C9F0C115ED
:10072000DC4771F0C8010E947C020DC0CB35ECE7BC
:10073000DE07B1F0CC35DC47A9F70E94A90CF2CF57
:100740000E942A0380E0DF91CF911F910F910895BD
:100750000E94BA0C0E943003F5CF0E94B20CE2CF87
:100760000E94B60CDFCF0E948A020E94C3210E9421
:10077000D70308950E94DB030E948B020E94C821C8
:10078000089581E008950895CF93DF93D82F0E94B4
:10079000C103C82F811519F08D2F0E94C3038C2F20
:1007A000DF91CF91089508950E94C403089580E0D9
:1007B0000E94D40308950E94AB1F0E94D4030895A1
:1007C000CF930E94AB1FC82F8091BC018C1779F08A
:1007D000C093BC010E945C226093BD017093BE0176
:1007E0008093BF019093C0018C2F0E94D403CF91BE
:1007F0000895ADE0B0E0EFEFF3E00C94202A4887D5
:1008000059876A877B878C879D8791110E94B50BDA
:100810001F8286E0FE013896DE01119601900D924E
:100820008A95E1F78D8181110DC029813A814B8133
:100830005C816D817E818F810E94FF0A2D96E2E0AE
:100840000C943C2ACE0101960E94C5028111EDCF85
:10085000F5CFFC018481813021F4808191810E9457
:1008600085080895611529F00E94FA190E94BB1AA3
:1008700008950E94431AFACFCF93C82F811599F09B
:100880008CEF8C0F813A88F48C2F0E944F208115B9
:1008900029F08C2F0E94F8200E944B0C8C2F0E9474
:1008A000DE200E944B0CCF91089580E28C0F88309F
:1008B00048F4C77081E001C0880FCA95EAF70E942A
:1008C000960BEFCF8BE58C0F833038F42C2F24520E
:1008D000330BC9010E94E11FE6CFE8E5EC0FEB31D5
:1008E00050F4F0E0EE0FFF1FED5DFE4F808191812F
:1008F0000E940720D8CF83E38C0F8331A0F661E0FC
:100900008C2F0E943204CFCF811581F19CEF980F7C
:10091000913A28F40E94F8200E944B0C089590E22E
:10092000980F983050F4877091E001C0990F8A9524
:10093000EAF7892F0E949C0BEFCF9BE5980F93302D
:1009400028F480E090E00E94E11F089598E5980F58
:100950009B3128F480E090E00E940720089593E303
:10096000980F933118F460E00E94320408950F93B9
:100970001F93CF93C82F8B010E943C0401151105D2
:1009800039F48C2F0E948404CF911F910F91089508
:100990008FE99FE00197F1F700C0000001501109B5
:1009A000EDCF60E570E0893311F060E070E00E9407
:1009B000B7040895811521F00E94960B0E944B0CFC
:1009C0000895811521F00E949C0B0E944B0C089504
:1009D000A0E0B0E0EEEEF4E00C941A2A6C01D62F01
:1009E000C72FFC011581068102950F700E948B0BA9
:1009F000E82E8115F9F0E12E1115E1F08C2F807FA2
:100A0000803461F080E28D0F8830F0F08C2F807E92
:100A1000803221F4D230C0F00115B1F08091A002F3
:100A200082FF12C082E00E947C0C0E948B0B91E03E
:100A3000E82EE926EC2FE295EF70C03CB0F5F0E02F
:100A4000E650F54D0C94032AE12CF4CF0C2F0F70D7
:100A5000C03110F00295007F111599F0011559F081
:100A600080E28D0F883010F0D11107C0802F0E94D6
:100A7000960B0E944B0C8D2F4EC0802F0E94A70B0F
:100A8000F8CF8D2F0E948404011579F080E28D0F3C
:100A9000883010F0D11104C0802F0E949C0B03C03D
:100AA000802F0E94AD0B0E944B0CE11409F4C6C0CC
:100AB0000E94870B80FDC2C0F60115820E94810B47
:100AC0000E94A807C6010E94EE060E94810B0E94A8
:100AD000B407B4C0FC2FFF70FF2EC07FC03219F0E6
:100AE000F29480EFF822D11541F0D130C9F11115FF
:100AF00009F443C00115E9F0BECF8091A00282FD48
:100B000014C0111559F0F11429F08F2D0E94960B85
:100B10000E944B0C80E00E943C04C7CF80E00E9402
:100B20008404F11411F28F2DB8CF111569F0011161
:100B300004C08F2D0E94DA04B8CF013009F0B5CF80
:100B40008F2D0E94CD0BB1CF0111AFCF8F2D0E9401
:100B5000E1048F2D0E94D90B8F2D0E94BC0BA5CFD5
:100B6000111521F0063008F0A0CFE3CF053008F0D2
:100B70009CCF8F2D0E94E10498CF0115D1F3D9337A
:100B800049F42FEF87EE93E0215080409040E1F749
:100B900000C000008D2F0E94840487CF8C2F869583
:100BA00086958370811569F0813009F07ECF8D2F95
:100BB0009C2F9370111102C080E090E00E940720EA
:100BC00074CF8D2F9C2F9370111102C080E090E0A4
:100BD0000E94E11F6ACF612F8D2F0E94320465CFE2
:100BE0008C2F8370811138C0111124C04D2F429574
:100BF00046954770440F440F8D2F8F70042E01C00F
:100C0000880F0A94EAF72D2F2071D4FF07C02FE038
:100C100030E001C0220F4A95EAF72095C695C695A7
:100C2000C370822BC23091F0C33099F0C13059F0BB
:100C30000E9484070E94AB1F0E94D403CDB7DEB789
:100C4000E8E00C94362A0E947E07F4CF0E948A07BF
:100C5000F1CF0E947B07EECF111539F1C0FFEACF2B
:100C60004D2F429546954770440F440F8D2F8F703E
:100C7000042E01C0880F0A94EAF72D2F2071D4FFAB
:100C800007C02FE030E001C0220F4A95EAF7209517
:100C9000C695C695C370822BC23069F0C33071F01F
:100CA000C13031F00E94D607C5CF823018F2D8CFBC
:100CB0000E94D007BFCF0E94DC07BCCF0E949607DE
:100CC000B9CFCF70111539F08C2F0E94A8078D2F46
:100CD0000E94DA04AFCF8D2F0E94E1048C2F0E9476
:100CE000B407A8CFD23F41F170F4D03FC9F0D13F53
:100CF00091F0111509F446C0011509F440C08D2F7B
:100D00000E943C0497CFD33FF1F0D43F91F78091FC
:100D1000A00282FD22C08C2F8F71111501F310C02B
:100D2000111541F0053008F085CF8C2F8F710E948E
:100D3000C40780CF0630F7CF8C2F8F711111CFCF22
:100D40000E94A80777CF111529F08C2F8F710E9470
:100D50009F0770CF0E949B076DCF111531F063E0A4
:100D60008C2F8F710E945D0C65CF81E00E947C0CFE
:100D7000023008F45FCF82E00E947C0C5BCF8C2FA6
:100D80008F71DECF011579F0D93349F4EFEFF7EE2B
:100D900023E0E150F0402040E1F700C000008D2F3B
:100DA0000E94840447CF8C2F8F7199CF0F931F938C
:100DB000CF93DF93EC01688179818D810E94920845
:100DC0008C010E94E2070E947A07B801CE010E94BE
:100DD000E804DF91CF911F910F910895CF93DF9396
:100DE000EC018C81811599F0CE010E9436038111AE
:100DF00011C00E948B0B811551F08D81811539F046
:100E00008091A00282FF03C082E00E947C0CDF91EF
:100E1000CF910895CE010E94D606CE010E94DE0237
:100E2000F6CF80E090E00E94E11F80E090E00E9419
:100E300007200E94B50B0E944B0C0E94D81A0E94FA
:100E4000BB1A08950E9412210E94110708950E9462
:100E5000A40B0E9422070895282F92959F70963028
:100E600099F060F4925F9F70923030F4203FB1F0BF
:100E700038F481E0283E38F080E008959A5FF3CF9F
:100E800081E0243FC9F7089591E0813F09F090E0A7
:100E900081E0283E08F080E0892B089581E00895E4
:100EA000FC018481811539F0808191810E9485083F
:100EB0000E942C07089580E00895A6E0B0E0E3E6E4
:100EC000F7E00C94202A2696E2E00C943C2AA7E056
:100ED000B0E0EDE6F7E00C94202A2796E2E00C94CF
:100EE0003C2A08950E94710708950E94720780931A
:100EF000CC01089508950E94750708959091CC0142
:100F0000892B0E94750708959091CC0189230E9436
:100F1000750708959091CC0189270E94750708955F
:100F20000E94710708950E94900708950E949307F8
:100F30008093CB01089580E00E949607089591E088
:100F400001C0990F8A95EAF7892F0E9496070895A4
:100F500021E030E001C0220F8A95EAF78091CB01B1
:100F6000822B0E949607089521E030E0A90102C07B
:100F7000440F551F8A95E2F7CA0180959091CB01E5
:100F800089230E949607089521E030E001C0220FD6
:100F90008A95EAF78091CB0182270E9496070895EF
:100FA0009091CB01892B0E94960708959091CB01D7
:100FB00089230E94960708959091CB0189270E946A
:100FC0009607089508959B01677091E001C0990FFD
:100FD0006A95EAF763E0369527956A95E1F7B901D6
:100FE000660F771F260F371FFA01E20FF31F40E04D
:100FF00050E0682F70E08191DF019B01042E02C058
:10100000369527950A94E2F7217021952827292300
:1010100028272E934F5F5F4F4330510561F70895A6
:101020009C01A82FA77083E0369527958A95E1F754
:10103000C901880F991F820F931FFB01E80FF91F49
:1010400040E050E080E0219130E00A2E02C0369569
:1010500027950A94E2F721703327042E01C0220F4E
:101060000A94EAF7822B4F5F5F4F4330510559F7DF
:101070000895282F862F953060F4243050F434E002
:10108000939FB0011124620F711D42EC51E00E9448
:10109000E3070895282F953068F4843058F434E03D
:1010A000939FC001112462EC71E0820F911D0E9498
:1010B0001008089580E00895A0E0B0E0E2E6F8E0CE
:1010C0000C941B2A7C010091CB018091CC01082B50
:1010D000C3E0D0E010E0C8010C2E02C095958795C2
:1010E0000A94E2F780FD09C02197A8F7D12C8D2D35
:1010F000CDB7DEB7E7E00C94372ADC2EB7018C2F92
:101100000E94870F019781F3F2CFCF93DF93D82FFF
:10111000C92F0E945C086D2F7C2F0E94870FDF91E2
:10112000CF9108951F93CF93DF93162FD72F9091D0
:10113000C101911541F0862F972F0E948508DF91FC
:10114000CF911F910895811581F0862F972F0E94CE
:101150005C08C82F682F812F9D2F0E943908612FAE
:101160007D2F8C2F0E94870FEACF862F972F0E940A
:101170004A08C82FF4CFE1E0F0E0DF0102C0AA0F77
:10118000BB1F6A95E2F7BD01DF0102C0AA0FBB1FBA
:101190004A95E2F76A2B01C0EE0F2A95EAF7962FDF
:1011A0009823961302C08E2B0895E0958E23089500
:1011B000242F462F682F8091CB010E94BB080E94EC
:1011C000960708950F931F93CF93E091CD01C7E049
:1011D0008091CE018E1304C0CF911F910F9108957D
:1011E0000E2F10E0CE9FF0011124E153FE4F20811D
:1011F0003181428153816481758186810E946707B4
:10120000F8013196E770E4CF20910702309108028F
:101210004091090250910A0260910B0270910C02F8
:1012200080910D020E946707089580910D02803120
:1012300078F480910C02811559F0E091CD01209154
:10124000CE01309108024091070257E02E1301C0F1
:1012500008956E2F70E05E9FF0011124DF01A1530D
:10126000BE4F14968C911497811561F111968C9153
:101270001197831327C08C91841324C015968C91E9
:10128000159781111FC012968D919C91A091090212
:10129000B0910A028A1B9B0B883C910598F48091BF
:1012A0000D028F70806180930D02EB52FE4F8081A2
:1012B0008F708061808387E092E00E94EE060E943A
:1012C000E2080895FB013196E770C0CFE091CD01AF
:1012D0009091CE0127E0E91302C080E00895AE2F7F
:1012E000B0E02E9FF0011124E153FE4F31813613FF
:1012F00006C03081381303C03581341304C0FD01AA
:101300003196E770E8CF81E008958F929F92AF9277
:10131000BF92DF92EF92FF920F931F93CF93DF93D1
:10132000CDB7DEB72D970FB6F894DEBF0FBECDBF99
:101330008C0186E0F801DE01189601900D928A95E5
:10134000E1F7F801F580848197E0892E92E0992EEB
:1013500090910B0291111BC0811509F4FFC0F1148B
:1013600009F440C1C8010E945007811509F43AC12F
:1013700087E0F801D40101900D928A95E1F7C4014C
:101380000E9429040E9415090E940409E7C0E08018
:10139000A280B380D0900C022091090230910A0201
:1013A000A501421B530BD11409F4DBC0483C510585
:1013B00008F0A6C0811509F4D1C09091080291806F
:1013C00080910D02803108F06BC0991228C0909175
:1013D00007029E1124C0F1105DC08F708061809360
:1013E0000D020E94040987E092E00E94EE068091BF
:1013F0000D02F8018683F12C8F2D2D960FB6F894EF
:10140000DEBF0FBECDBFDF91CF911F910F91FF9037
:10141000EF90DF90BF90AF909F908F900895F11064
:1014200039C040E0692D8E2D0E94660940E0692D8B
:101430008E2D0E946609F82E8111DDCF8885998551
:101440000E948508292F22952F70903450F49F70A8
:10145000223080F0911599F0F8019681903178F45E
:10146000CBCF2A5F2F70223078F0C8010E94EE06A1
:10147000FD2CC2CF911519F0811509F4BDCF805E06
:10148000883008F4B9CFF1CF803F08F4B5CF815F41
:101490008330F7CF80910D02816080930D02ABCF36
:1014A000991207C0909107029E1103C0F11409F42C
:1014B00079C0C8010E945007811509F493C0F11446
:1014C00009F490C080910D02803288F020910702CB
:1014D000309108023A832983BC82AB8290910B023F
:1014E0009D831E828F83CE0101960E94EE0687E0C7
:1014F000F801A7E0B2E001900D928A95E1F742CFA2
:1015000090910D029031A0F4488559856A857B85BC
:101510008C859D850E945D0787E092E00E94EE0623
:1015200087E0F40111928A95E9F70E94040963CFDC
:101530008115A1F02091080281812813BACF8091F2
:1015400007028E11B6CFF110B4CF9683C8010E9466
:10155000EE0687E0F40111928A95E9F7FF24F394EF
:101560004BCF483C510508F041C08115B9F3F11447
:10157000C9F190910802818198132AC080910702D5
:101580008E1126C080910D0280FD19C08031B8F007
:101590008683807F803F39F08681982F907F905F8F
:1015A0008F70892B8683C8010E94EE0687E0F801C0
:1015B000A7E0B2E001900D928A95E1F7E5CE87E0D1
:1015C000F801A7E0B2E001900D928A95E1F7C6CF4D
:1015D000C8010E94500781118ACF80910D0281605D
:1015E00080930D02C8010E94EE06B8CF4885598548
:1015F0006A857B858C859D850E945D0791CFAEE0D5
:10160000B0E0E5E0FBE00C941F2A288739874A8781
:101610005B876C877D878E87CE0108960E9485093F
:101620006C858115A9F0611541F0288539854A85B9
:101630005B857D858E850E94670717E08091CD01CF
:101640009091CE0189133AC02E96E3E00C943B2A88
:1016500087E0FE013896DE01119601900D928A9581
:10166000E1F7611551F3A091CE018A2F90E0019628
:10167000877099272091CD012817190689F097E0E6
:101680009A9FD0011124A153BE4FFE0131960190C3
:101690000D929A95E1F78093CE010E94E208CDCF9A
:1016A0000E9427071092CE011092CD0187E0E7E05B
:1016B000F2E0DF011D928A95E9F7BFCF189FC001C4
:1016C000112481539E4F0E948509811509F4BCCFD6
:1016D000E091CD011E9FF0011124E153FE4F2081C6
:1016E0003181428153816481758186810E946707BF
:1016F0008091CD0190E00196877099278093CD016C
:101700009DCF809136028695869586950895809125
:1017100036028770089590913602977081E091119A
:1017200001C080E008958091620208959091620264
:10173000982B909362020895982F90958091620261
:101740008923809362020895109262020895909115
:101750006102982B909361020895982F9095809143
:1017600061028923809361020895109261020895B5
:1017700008950E94B80B089590913702292F2823CD
:10178000211531F080958923809337020E94B90B8F
:10179000089508950E94C90B089590913802292F49
:1017A0002823281729F0982B909338020E94CA0BFF
:1017B000089590913802292F2823211531F0809522
:1017C0008923809338020E94CA0B089580913802C1
:1017D000811529F01092380280E00E94CA0B08950A
:1017E000CF93C091620280916102C82B8091380230
:1017F000811531F0C82B0E942D2081110E94E60B2B
:101800008C2FCF910895CF93DF93C0910201D09197
:1018100003010E94F00B8883C0910201D091030163
:1018200048E050E06EE272E0CE010E948A2A892BE5
:1018300059F088E0FE01AEE2B2E001900D928A9587
:10184000E1F7CE010E94B81FDF91CF910895CF93A9
:10185000DF93C0910001D09101010E94F00B8983B8
:10186000C0910001D091010140E250E06EE072E0D1
:10187000CE010E948A2A892B59F080E2FE01AEE057
:10188000B2E001900D928A95E1F7CE010E94C31F4C
:10189000DF91CF9108950E949E21813039F480918B
:1018A0009F0287FF03C00E94270C08950E94030C2B
:1018B000089508950E94590C0895962F2091A00232
:1018C00022FF11C0682F660F660F660F692B6093A9
:1018D00036020E94A80780913602869586958695E5
:1018E0000E945A0C08950E94A8070895109236028B
:1018F00080E00E945A0C08959091360280958923C9
:1019000080933602282F277021110DC0891759F0B6
:101910009091A00292FF07C08695869586950E94B9
:10192000B4070E94760C08959091A00292FB2227A2
:1019300020F9281769F080FB92F99093A00280911A
:101940009F029091A0020E94E20C82E00E947C0C17
:1019500008958091A002002482FF0394802D0E94AC
:10196000940C089581E00E94940C089580E00E94F8
:10197000940C08956FEF7FEF80E090E00E94E22AE0
:10198000089580E090E00E94AE2A853E9E4F19F4B3
:101990000E94D81D089580E0089582E090E00E94A2
:1019A000A02A089583E090E00E94A02A0895682F5D
:1019B00083E090E00E94C42A089584E090E00E94B1
:1019C000AE2A0895BC0184E090E00E94E22A0895C6
:1019D000AB01BC018FE090E00E94D62A0895AB01D4
:1019E000BC0183E190E00E94D62A089560E070E097
:1019F000CB010E94EF0C089560E070E0CB010E94E3
:101A0000E80C0E94F60C0895A8E0B0E0EAE0FDE0E2
:101A10000C94202A65EE7EEF80E090E00E94E22A9E
:101A200060E082E090E00E94C42A81E08093CC01D3
:101A30000E94D70C60E074E184E090E00E94E22A0A
:101A400060E086E090E00E94C42A60E087E090E0D9
:101A50000E94C42A40E050E0BA0188E090E00E9471
:101A6000D62A60E083E290E00E94C42A60E08CE025
:101A700090E00E94C42A60E08DE090E00E94C42AB9
:101A800019821A821B821C821D821E821F82188666
:101A900048E050E067E170E0CE0101960E94B42A70
:101AA00040E050E0BA018FE190E00E94D62A80E049
:101AB0000E94F11D0E94231E0E94FC0C2896E2E069
:101AC0000C943C2A0E94040D0895682F8EE090E04B
:101AD0000E94C42A0895A6E0B0E0E1E7FDE00C947E
:101AE0001E2A0E9450228C01809163029091640210
:101AF0008017910779F019821A820E945022BC0146
:101B000049815A8180E090E00E94F90310936402B9
:101B1000009363022696E4E00C943A2A0E945C2229
:101B200060936E0270936F028093700290937102C3
:101B300060936A0270936B0280936C0290936D02C3
:101B40000895089508950E94A10D089508950E9492
:101B5000A60D0E94A30D089508950E94AC0D08954E
:101B600008950E94B00D0E94AD0D08958CE790E19C
:101B70000E94E6110E94A20D0E94A70D089581E027
:101B8000089581E008950E94BF0D08950895089575
:101B900008950E94C60D0E94C70D0E94C80D0895A9
:101BA0000E94C10C811102C00E94620D0E94CD0CE6
:101BB000809372020E94DD0C9093A00280939F029A
:101BC0000E9411170E94D20C0E947B078091CB01CA
:101BD0000E94930708950E9447220E94331E0E948C
:101BE00039110E94D00D0E94D3030E94F9150E9462
:101BF000B10D0895A6E0B0E0E0E0FEE00C94172AF5
:101C00000E94C10D81110CC00E946B0D0E94A41690
:101C10000E94F91A0E94E0032696EBE00C94332A06
:101C20000E944F1185E6A82E82E0B82E750110E0C3
:101C3000F70101917F01812F0E9498101F5F1530DD
:101C400009F442C00817A1F38091720281FD0E943D
:101C50009E100E94C30DC82E00E099249394802FFB
:101C60000E949810182FF50191915F01891731F1A9
:101C7000D82ED926F12CEE24E3948D2D8E218115BA
:101C8000B1F0C114A1F0F9820A830E9450229C8312
:101C90008B839D8291E0812F8E21811101C090E084
:101CA00049815A816B817C818D810E94F903F39473
:101CB000EE0CF4E0FF12E1CFF50112930F5F053057
:101CC00071F60E948E0DA2CF0813BECF9DCF1F9339
:101CD000CF93DF930E948C0FEC01811522E59207D0
:101CE00008F05DC0811540E5940708F0DBC0803E38
:101CF000910528F58D3C910508F0ACC0883A910516
:101D000078F4853A910508F0A2C08130910509F474
:101D100041C00497813A9105E8F1C0E0D0E03AC0B3
:101D2000885A91094B97C8F7C85AD0E0CC0FDD1FED
:101D3000C75ADE4F0990D881C02DD4642BC08115BD
:101D400050E49507F8F4C11580E2D80708F0C0C048
:101D5000C83ED105F8F0CE019A9581159F41E8F66D
:101D60008D2F0E942D10182FCE0199270E948C0FC5
:101D7000212F30E0322F2227E901CC27DF71C82B39
:101D8000D92B08C099270E948C0FCC27DF70C82B55
:101D9000D92BD06ACE01DF91CF911F910895803861
:101DA00042E59407C8F5803652E5950708F05BC018
:101DB000C03482E5D807D0F4C03292E5D90708F0E4
:101DC0004BC08C2F8695869520E2829FC0011124FE
:101DD000C37021E030E0A90102C0440F551FCA952D
:101DE000E2F7EA01C82BD92BDD68D4CF8C2F86957A
:101DF0008695877050E2859FC0011124C37021E051
:101E000030E0A90102C0440F551FCA95E2F7EA016C
:101E1000C82BD92BDC68BECF803C52E5950758F41F
:101E20008F71C03AD245A0F590E0982F8827EC0139
:101E3000C46FD06AAFCF805C9245809708F06DCFB9
:101E4000DC2FCC27CC27DF71C06FD06AA3CFA4973B
:101E5000D064A0CFD0659ECFCF71D0E0DC2FCC274F
:101E6000C16FD06A97CF86958695877020E2829F52
:101E7000C0011124C37021E030E0A90102C0440F69
:101E8000551FCA95E2F7EA01C82BD92BDA6882CF31
:101E90000E942D10C82FD0E0DC2FCC27CC27DF717B
:101EA000D06278CF8F710E942D1053E0CC0FDD1FD0
:101EB0005A95E1F7CC27DF70282F30E084FF04C06B
:101EC00050E1859F90011124C22BD32BD06962CFA2
:101ED0008D2F8F710E942D10182FCE0199270E94EF
:101EE0008C0F212F30E0322F222722273F71282B01
:101EF000392BE901D5CF462F672F753028F44430B0
:101F000018F40E94D617089580E090E008950E948A
:101F10007B0F0E94670E08959C01803E910509F495
:101F200048C0D8F48133910509F47DC048F4893262
:101F3000910509F46DC08A9709F47CC0C901089520
:101F40008933910551F18238910539F1C597B1F77F
:101F500080919F0285FFF2CF29C0843E910509F44C
:101F600047C048F4823E910599F1833E9105A9F15D
:101F700021EE30E0E3CF863E910509F444C0873E70
:101F80009105E1F680919F0283FD61C09091A002CE
:101F900091FF2BC024EE30E0D1CF80919F0283705F
:101FA000811152C08091A00283FFC8CF29E230E0A6
:101FB000C5CF80919F0280FD33C09091A00290FF19
:101FC000BDCF23EE30E084FFB9CF20E030E0B6CFC4
:101FD00080919F0282FDF5CFB1CF80919F0282FD5B
:101FE00030C09091A00290FD2FC084FFA7CFEDCF0D
:101FF0008091A00281FFA2CF80919F0227EE30E066
:1020000084FDE3CF9BCF80919F0283FDF7CF96CFD6
:1020100080919F0285FD1EC08091A00283FF8ECF1C
:1020200029E330E08BCF80919F0286FF87CF2AE2A1
:1020300030E084CF80919F0286FF80CF21E330E0A3
:102040007DCF22EE30E07ACF20EE30E077CF26EE63
:1020500030E074CF25E330E071CF90919F0292FF82
:1020600010C041E0282F2471243009F040E031E015
:10207000282F2871283009F030E0431711F02CE0A8
:10208000822793FF10C041E0282F2471243109F0EA
:1020900040E031E0282F2871283109F030E0431763
:1020A00011F02CE082273091A00230FF10C051E0E7
:1020B000282F2171213009F050E041E0282F2871AC
:1020C000283009F040E0541711F029E0822731FF51
:1020D00010C041E0282F2171213109F040E031E0AA
:1020E000282F2871283109F030E0431711F029E03A
:1020F000822794FD877E089580E00895CF939C0108
:10210000FB01805E9245C1E0809738F4C581C11122
:1021100004C0822F8F710E94FF028C2FCF910895EF
:1021200008950E949010089508950E9494100895B3
:10213000E82FF0E0EA55FD4F80810895089580EA88
:102140008A95F1F7089500C008950E949F100895A0
:10215000F894E82FE295EF70F0E041A18F7021E054
:1021600030E0B90102C0660F771F8A95E2F7CB0114
:10217000962F9095942391A392A1892B82A3789472
:102180000895CF93DF93C3E9D1E089918F3F11F098
:102190000E94A81081E0C839D807B9F787E60E94E5
:1021A000A81086E60E94A81086E30E94A81085E386
:1021B0000E94A810DF91CF910895A0E0B0E0E3EE77
:1021C000F0E10C941A2AEC01D62E062F10E0C8017B
:1021D0008D569E4F7C01FC0180818F3F09F444C0E5
:1021E000F894E82FE295EF70F0E091A18F7021E074
:1021F00030E001C0220F8A95EAF7892F822B81A354
:1022000082A12095282322A378940E94A310AFE8EE
:10221000B1E091E0C12C8D918F3F79F0E82FE295EC
:10222000EF70E05EF0E0208130E08F7002C0359505
:1022300027958A95E2F7892F20FD80E0C82A990F1B
:10224000F1E0A339BF0739F7F70180818F3F11F023
:102250000E94A81061E0C11001C060E08D2D0E94B5
:10226000A510C00FD11FC882CDB7DEB7E8E00C942F
:10227000362A0E94C11085E0E6EAF2E0DF01982FDD
:102280001D929A95E9F7E1EAF2E0DF011D928A9545
:10229000E9F785E00E948C110E9491100895A5E055
:1022A000B0E0E5E5F1E10C941D2AFE01319685E0F0
:1022B000DF011D928A95E9F710E0FE2E0F2F612FA6
:1022C0008F2D902F0E94DD101F5F1530C1F745E064
:1022D00050E06F2D702F81EA92E00E948A2A21E05F
:1022E000892B81F420E045E066EA72E081EA92E021
:1022F0000E948D11182F0E949510812F2596E5E0E0
:102300000C94392A85E0EF2DF02FA1EAB2E001907C
:102310000D928A95E1F7E7CF0895A0E0B0E0E3E9F8
:10232000F1E10C941A2AD82EE92EF62ED72F042F7D
:10233000C22F211579F081E0809375020E9450220E
:10234000909374028093730280E0CDB7DEB7E8E02B
:102350000C94362AC0907502C114B1F380917302B7
:10236000909174020E94DF21059770F310E0A8019C
:102370006D2D7E2D8F2D9D2F0E948A2A892B41F055
:10238000A8016D2D7E2D8F2D9D2F0E94972ACC2D7B
:10239000109275028C2FD9CF0E94FA0D08950E94D9
:1023A000E9210E9449240E94B60D0E9463240E94E4
:1023B000EB0D0E9470240E9475240E94CC110E9493
:1023C0008F240E9416230E94C90DF5CF9093BB0164
:1023D0008093BA010895CF93DF93EC01FB018581CF
:1023E000811104C081E0DF91CF9108950E94930B89
:1023F0008272FE01E052F847EB30F10598F7EA5F90
:10240000F44D0C94032A0E94EB1580E0ECCF81156B
:1024100029F00E94D915F9CF8115D9F30E94CA1568
:10242000F4CF811529F00E94C414EFCF8115D9F3A0
:102430000E94B614EACF811529F00E94E614E5CF78
:102440008115D9F30E94D514E0CF811529F00E949F
:102450000815DBCF8115D9F30E94F714D6CF81156B
:1024600029F00E94C813D1CF8115D9F30E94A81377
:10247000CCCFCF92DF92EF92FF921F93CF93DF9357
:10248000172FE82F711111C0411521F0F0E0E6522D
:10249000FF4FE4916E2F7E2F8E2FDF91CF911F91F2
:1024A000FF90EF90DF90CF900895C62ED12CE72EAD
:1024B000F12C411521F0F0E0E652FF4FE49186E067
:1024C000689F90011124CFEFD0E0C901BE010E94A6
:1024D000DB29AB01C601880F991FF5E5F49FB00118
:1024E000F59F700D1124861B970B682F660F680FE0
:1024F0006E01CE18DF08EC9DD001ED9DB00D1124CA
:102500009B2F169F60011124CD2CDD247E01EC1839
:10251000FD086701EC9D7001ED9DF00C11246E012A
:10252000C61AD108B601169F6001179FD00C11245E
:10253000CD2CDD24CC19DD09EC9F6001ED9FD00C82
:1025400011247D2D43305105C1F02C3F334050F410
:1025500041305105B1F04230510561F47E2FEB2F2F
:102560009D2D08C04430510579F04630510511F0D9
:102570007B2F9F2D6E2FE92F8FCF7F2D9E2FEB2F3F
:10258000F9CF7E2FEF2DF6CF9E2FED2D7B2FF2CFA3
:1025900041E00E943912089508950E94C8120895DA
:1025A00090910401291B922FE091A501F091A601C1
:1025B000242F462F682F892F90E009950895CF93F7
:1025C000DF93982F762F842FD22FC32F692F0E944D
:1025D000CD12962F672F482F2D2F3C2F892F0E9429
:1025E000D012DF91CF9108958091AB02843028F40E
:1025F000837084608093AB0208958C32E8F383701B
:102600008862F8CF4F925F926F927F928F929F92E3
:10261000AF92BF92CF92DF92EF92FF920F9388E03A
:1026200090E00E94A82A6B017C0183E290E00E9466
:10263000A02A282F30E040E050E060E070E080E029
:1026400090E000E20E94472A260137012C29352913
:10265000462957290F91FF90EF90DF90CF90BF90C0
:10266000AF909F908F907F906F905F904F90089564
:10267000A0E0B0E0EEE3F3E10C941A2A8901D42F34
:10268000C52F6B017C010E94F412A8016D2F7C2FD5
:1026900088E090E00E94D62A98014D2F5C2FB60169
:1026A000C70100E20E94622A622F83E290E00E944A
:1026B000C42ACDB7DEB7E8E00C94362AEBEAF2E0A4
:1026C0002081318142815381648175818681978126
:1026D0000E9438130895EBEAF2E085E180831182CD
:1026E0008FEF828383831482758125E130E04FEF81
:1026F0005FEF60E0868197810E9438130895809192
:10270000AB0280FF03C086958695089580E008950A
:102710008091AB02817008959091AF02933018F4CC
:102720009F5F9093AF02811591F02091AB023091A1
:10273000AC024091AD025091AE026091AF02709137
:10274000B0028091B1029091B2020E9438130895B4
:1027500081E00E948C1308959091AF02911519F0B9
:1027600091509093AF02811591F02091AB0230917E
:10277000AC024091AD025091AE026091AF027091F7
:10278000B0028091B1029091B2020E943813089574
:1027900081E00E94AC1308958091AF020895809368
:1027A000AF02611589F02091AB023091AC024091EB
:1027B000AD025091AE027091B002682F8091B102CB
:1027C0009091B2020E943813089560E00E94CF13E6
:1027D00008958091AC0208958091AD020895809192
:1027E000AE0208950F931F93CF938091AB0280FFA9
:1027F00009C0E091A901F091AA010995CF911F911B
:102800000F910895C09106010091A5011091A601B4
:1028100080910701C81768F7809104019C2F981BCD
:10282000892F20E040E060E090E0F8010995CF5F5B
:10283000EFCFEF92FF920F931F93CF93DF93D82F99
:10284000162F042F8091AB0280FF0CC0C0910601AF
:10285000E090A501F090A60180910701C81738F01B
:102860000E94F213CDB7DEB7E6E00C94382A8091CF
:1028700004019C2F981B892F202F412F6D2F90E052
:10288000F7010995CF5FE8CF982F762F842F2091FD
:10289000AB0220FF09C0692F0E94C812962F672F34
:1028A000482F892F0E9419140895CF93DF93EC01CC
:1028B000EBEAF2E0438162818C810E9444148C81B6
:1028C0008F5F8C83DF91CF9108950F931F93CF93E8
:1028D000DF93C82F162FD42F022F8091AB0280FFD9
:1028E0002EC0E82FE695E695F0E0E856FE4F908181
:1028F00090937D028C7F843039F56C2F712F842F5B
:102900000E94C812962F672F482F892F0E941914F2
:10291000C093AC021093AD02D093AE02011579F0D2
:102920002091AB026091AF027091B0023C2F412F19
:102930005D2F8091B1029091B2020E943813DF9115
:10294000CF911F910F910895923019F4C091AC026C
:10295000DFCF9530E9F6FACF282FEBEAF2E081815C
:1029600043816281885F0E946514089581E00E941E
:10297000AC140895282FEBEAF2E081814381628153
:1029800088500E946514089581E00E94BA14089549
:10299000282FEBEAF2E0628131E1630F08F46FEF78
:1029A000438181810E946514089581E00E94C814CA
:1029B0000895282FEBEAF2E0628131E1631B08F40D
:1029C00060E0438181810E946514089581E00E9446
:1029D000D9140895282FEBEAF2E0438131E1430F47
:1029E00008F44FEF628181810E946514089581E0AF
:1029F0000E94EA140895282FEBEAF2E0438131E1C6
:102A0000431B08F440E0628181810E9465140895AF
:102A100081E00E94FB14089520E00E94651408954F
:102A2000EF92FF921F93CF93DF93EC0110E0EE241F
:102A3000EA94F12C60910801161770F00E94F213CD
:102A40008C819A8190FF1EC08F5F8C83DF91CF9124
:102A50001F91FF90EF90089520910601210F3327D9
:102A6000331F70E0C7010E94EF29962F8C8140919F
:102A7000AE026091AD02199F800D11240E94DF12F9
:102A80001F5FD8CF8150E1CFEBEAF2E020812E7FAB
:102A90002083318142815381648175818681978150
:102AA0000E94381310927E020E94F2130895EBEAFE
:102AB000F2E080818E7F808310927E020E94F2136A
:102AC00008956091AB026695669570E041E050E034
:102AD00089E091E00E947D2A892B19F481E080939E
:102AE0007E020E945022909377028093760208958E
:102AF0009091AB0290FF3AC08115C9F18B30C8F5B7
:102B00008F73282F220F220F8091AB028370282B06
:102B10002093AB02611581F03091AC024091AD027F
:102B20005091AE026091AF027091B0028091B102FB
:102B30009091B2020E9438136091AB02669566953F
:102B400070E041E050E089E091E00E947D2A892B0D
:102B500091F010927E0281E0809379024091AE0262
:102B60006091AD028091AC020E940C15089581E045
:102B7000C8CF8AE0C6CF0E946115EDCF682F809143
:102B8000AB02869586958F5F8B3008F081E00E94BE
:102B90007815089581E00E94BE150895682F8091F0
:102BA000AB02869586958A9509F48AE00E9478158D
:102BB000089581E00E94CE15089561E00E94781585
:102BC0000895EBEAF2E080818160808386958695A6
:102BD0000E94DD1508958091AB0280FF03C00E9422
:102BE000441508950E94E115089560E00E9478154B
:102BF000089580917C0281113CC00E9402132093B1
:102C0000AB023093AC024093AD025093AE0260939E
:102C1000AF027093B0028093B1029093B20224305D
:102C2000A0F40E946B130E9402132093AB02309316
:102C3000AC024093AD025093AE026093AF0270932A
:102C4000B0028093B1029093B2020E94F4121092EB
:102C50007E02E091A301F091A40109958091AB025D
:102C600080FF04C0869586950E94F51581E08093CB
:102C70007C020895EBEAF2E0808181608083869592
:102C800086950E94F51508958091AB0280FF03C0E0
:102C90000E94571508950E943A1608950F931F93A6
:102CA000CF93DF9380917E028115C1F180917D02E7
:102CB000E091AB02E695E695E81BE093780282305E
:102CC00091F5F0E0E952FF4FE491CE2FD0E005E519
:102CD00014E180917902811561F0109279020E94CD
:102CE0005022909377028093760210927B0210928A
:102CF0007A020E9450222091760230917702821B44
:102D0000930B8F3F9F4750F42C0F3D1F309377025A
:102D10002093760286E792E0F8010995DF91CF9142
:102D20001F910F910895C0EDD7E00CEC12E18530B2
:102D300081F6E695F0E0EC52FF4FE491CE2FD0E023
:102D400000E115E1C6CF08950E944E160895879AB6
:102D50000895FC01EE0FFF1FE80FF91FED54FD4F22
:102D60006183408322830895FF920F931F93CF9333
:102D7000DF93182F062FF42EC0E0D0E02F2D402F28
:102D8000612FCE010E94A9162196C630D105B1F758
:102D9000CDB7DEB7E5E00C94392A31B33F7721B3E4
:102DA00020684FB7F89483EB92E0FC0101965081C4
:102DB00068E021BB000000C057FF31BB550F000089
:102DC00000C000C000C031BB00C06A9591F752E05E
:102DD000853C950751F74FBF8FE594E00197F1F7D8
:102DE00000C0000008950E94BA0C089580E00E947F
:102DF0009810817008950E944F112FEF86E791E09F
:102E0000215080409040E1F700C000000E944F1127
:102E10000E94F616811521F00E94F3160E948C2262
:102E200008950E94FB1608950F931F93CF93DF938D
:102E30008C01FC01C081D181CE010E94A02A219683
:102E4000F801D183C083DF91CF911F910F91089535
:102E500084E0089598E0699FB0011124640F711D0A
:102E6000640F711D98E2899F600D711D1124CB01C3
:102E7000889608950F931F93CF93DF93982F942BE9
:102E80009430B8F46530A8F40E942A178C010E948F
:102E9000A02AC82FD0E0DC2FCC27C80101960E94C1
:102EA000A02A9E01282BC901DF91CF911F910F917C
:102EB000089580E090E0F8CF0F931F93CF93DF93B6
:102EC000122F032F982F942B943068F4653058F408
:102ED0000E942A17EC01602F0E94C42A612FCE01A4
:102EE00001960E94C42ADF91CF911F910F910895FE
:102EF0001F93CF93DF93D0E0C0E011C0412F6C2F20
:102F00008D2F0E945F029C01412F6C2F8D2F0E94FC
:102F10005C171F5F143091F7CF5FC53011F010E0E0
:102F2000EDCFDF5FD43041F7DF91CF911F9108954E
:102F3000EF92FF920F931F93CF93DF938C01EA01DF
:102F40007A01E60EF71ECE15DF0529F4CDB7DEB700
:102F5000E6E00C94382A80E0003A110520F4C8011C
:102F600088960E94A02A89930F5F1F4FECCFEF92A3
:102F7000FF920F931F93CF93DF938C01EA017A01A5
:102F8000E60EF71ECE15DF0529F4CDB7DEB7E6E075
:102F90000C94382A003A110528F46881C8018896F3
:102FA0000E94C42A21960F5F1F4FECCF982F942BBD
:102FB000943028F4653018F40E943A17089580E0A0
:102FC00090E0089580E1089588E393E00895EF92FA
:102FD000FF920F931F93CF93DF938C01EA017A0145
:102FE000E60EF71ECE15DF0529F4CDB7DEB7E6E015
:102FF0000C94382A083383E0180748F4C801885332
:103000009F4F0E94A02A89930F5F1F4FEBCF80E054
:10301000FACFEF92FF920F931F93CF93DF938C0120
:10302000EA017A01E60EF71ECE15DF0529F4CDB7C9
:10303000DEB7E6E00C94382A083383E0180730F452
:103040006881C80188539F4F0E94C42A21960F5F50
:103050001F4FEACFCF93DF93C8ECD0E060E0CE0102
:103060000E94C42A2196C11584E0D807B9F7DF91E0
:10307000CF910895A2E0B0E0E0E4F8E10C941D2ABD
:10308000F82E80E1F816A0F48FEF93E00E94A02ABA
:1030900081110EC008EC10E0F1100EC01A830983F4
:1030A00040E0BE016F5F7F4F84E197E10E947E1C8C
:1030B0002296E5E00C94392A011584E01807C1F343
:1030C000C8010E94A02A0F5F1F4F8111F5CFFA940B
:1030D000E3CFCF93DF93EB0186319C4719F50E9434
:1030E000930B9D819115A1F08A7A91E0811101C025
:1030F00090E090937F02811549F085E30E94DE20E5
:103100000E944B0C80E0DF91CF91089589E2F6CFC9
:1031100080917F02811521F085E30E94F820F0CF95
:1031200089E2FBCF81E0EFCFCF93DF93EC01FB018E
:103130008581811509F4CFC09E01305723323105B6
:1031400008F0AFC00E94DD0C9093A00280939F0214
:10315000FE01E150F047E232F10520F4EF5EF44D5C
:103160000C94032A80919F02816080939F0290C0FB
:103170008091A00288608093A0028AC080919F0203
:103180008260F3CF80919F028460EFCF80919F0295
:103190008860EBCF8091A0028160EDCF8091A0028A
:1031A0008260E9CF80919F028061DFCF80919F0292
:1031B0008062DBCF80919F028064D7CF0E94270777
:1031C00080919F028068D1CF80919F028C60CDCF8B
:1031D0008091A0028360CFCF80919F028E7FC5CF68
:1031E0008091A002877FC7CF80919F028D7FBDCF46
:1031F00080919F028B7FB9CF80919F02877FB5CF4F
:103200008091A0028E7FB7CF8091A0028D7FB3CF37
:1032100080919F028F7EA9CF80919F028F7DA5CF45
:1032200080919F028F7BA1CF0E94270780919F02F0
:103230008F779BCF80919F02837F97CF8091A00251
:103240008C7F99CF80919F02992782FF939590FB65
:1032500082F990FB83F989CF8091A002982F9095F5
:1032600090FB80F990FB81F986CF90919F02892F86
:103270008F7B96FF806479CF0E94270790919F02F1
:10328000892F97FB87F9805870CF81E00E94650DE8
:1032900080919F029091A0020E94E20C0E94270759
:1032A00080E0DF91CF91089580E0F0CF90919F0270
:1032B000892F8F7E94FF806158CF90919F02892F34
:1032C0008E7F90FF816051CF9091A002892F877FE0
:1032D00093FF886050CF81E0E4CF282F35EB2303A4
:1032E000C001112497FF04C080589109892F0895C7
:1032F00080589F4FFBCF8091860280FF0DC0609168
:103300000F0170E0660F771F60387105B0F5611529
:103310007105A9F1862F089581FF07C060910F0103
:1033200084E0689FB0011124EFCF82FF04C0609158
:103330000F0188E0F6CF909185029115D9F0209188
:103340000E0180910F01682F70E0921730F043E07A
:10335000660F771F4A95E1F7D7CF899FC0011124E7
:1033600033E0880F991F3A95E1F7622F70E00E94D1
:10337000EF29CACF68E070E0CDCF8FE7089581E0F4
:1033800008958091860280FF0CC060910B0170E06F
:1033900075956795759567956115710549F1862F46
:1033A000089581FF06C060910B0170E075956795E7
:1033B000F3CF60910B0182FD0BC0909184029115B7
:1033C000A1F060910A0180910B01961738F0682FE7
:1033D00070E06038710500F38FE70895899FC001A0
:1033E000112470E00E94EF29F4CF61E070E0D7CFA4
:1033F00081E00895E3E3E80FE331E0F5F0E0ED5C10
:10340000F44D0C94032A0E947B19819580938A02C3
:1034100008950E947B19FACF0E947B1981958093B1
:10342000890208950E947B19FACF0E94C1198093E6
:103430008B0208950E94C1198195F9CF0E94C1198C
:10344000819580938C0208950E94C119FACF815D05
:10345000990B21E030E001C0220F8A95EAF78091B4
:103460008802822B80938802089580918602816071
:10347000809386020895809186028260F9CF8091C0
:1034800086028460F5CF409189028D3C59F4809189
:103490008A0287FF0DC010928A02411559F41092DA
:1034A000850208C08E3C81F480918A0218169CF334
:1034B000411581F080918B0290918C02892B8111B2
:1034C00059C01092840208958F3C41F447FFF0CF19
:1034D0001092890280918A028115E0CF803D19F413
:1034E0001416B4F3E5CF90918B02893D29F4191697
:1034F000FCF610928B02DCCF8A3D19F497FFD8CFEF
:10350000F8CF90918C028B3D29F497FFD1CF109288
:103510008C02CECF8C3D19F41916CCF3C9CF9FE2A3
:10352000980F983090F4815D990B21E030E0B9015B
:1035300002C0660F771F8A95E2F7CB0180959091C4
:103540008802892380938802B3CF8D3D31F4809126
:1035500086028E7F80938602ABCF8E3D21F48091D0
:1035600086028D7FF7CF8F3D09F0A2CF8091860232
:103570008B7FF0CF08950E945022209189023091D4
:103580008A02232B211521F08093820290938302DB
:1035900020918B0230918C02232B211521F08093F6
:1035A00080029093810287E892E00E94D21F0895E2
:1035B00086E0E7E8F2E0DF011D928A95E9F71092D4
:1035C000850210928402109286020895FC01828185
:1035D00081110DC0838181110AC08481811107C0CE
:1035E00081E09581911101C080E08170089581E0B2
:1035F000FCCFA6E0B0E0EFEFFAE10C941A2A86E0E7
:10360000E7E8F2E09E012F5F3F4FD90101900D9254
:103610008A95E1F71092890210928A0210928B0229
:1036200010928C028B819C81892B7901811589F004
:1036300080918202909183020E94DF216C0180912F
:1036400085028115B9F1909110019C151D0408F4B3
:103650003EC08D819E81892B811591F080918002E1
:10366000909181020E94DF218C018091840281155A
:1036700009F45FC090910C019017110608F467C01F
:10368000B70187E892E00E942C21811105C087E8EC
:1036900092E00E94E61A81110E94BB1A86E0F701AF
:1036A000A7E8B2E001900D928A95E1F72696E8E04E
:1036B0000C94362A209111019AE0299F900111243F
:1036C0002C153D0530F68F5F8093850202C08F3F39
:1036D000D1F7DB80D11459F00E947B1991E01D14C1
:1036E0000CF09FEF899F802D112480938902DC804C
:1036F000D11459F00E947B1991E01D140CF09FEF3A
:10370000899F802D112480938A02809189028115DE
:1037100009F49FCFD0908A02D11409F49ACF0E9465
:103720006D19809389028D2D0E946D1980938A02F4
:1037300090CF20910D019AE0299F9001112420172C
:10374000310708F09DCF8F5F8093840202C08F3FC6
:10375000D1F71D81111559F00E94C11991E0111680
:103760000CF09FEF899F802D112480938B021E8186
:10377000111559F00E94C11991E011160CF09FEF3C
:10378000899F802D112480938C0280918B0281155A
:1037900009F476CF10918C02111509F471CF0E94B3
:1037A0006D1980938B02812F0E946D1980938C027A
:1037B00067CFA0E0B0E0EFEDFBE10C94192AE82F11
:1037C000F0E0E652FE4FB490282F269526952695D8
:1037D00030E0F901E658FD4F0491877010E0082EA3
:1037E00002C0159507950A94E2F701701127F901B7
:1037F000E659FD4FE490F12C082E02C0F594E794B1
:103800000A94E2F7E0FAEE24FF24E0F8F901E65A20
:10381000FD4FC491D0E002C0D595C7958A95E2F7D7
:10382000C170DD27C62ED12C0115110549F5E11413
:10383000F10431F086EE0E943C04C601009771F558
:10384000B6018B2D0E94B704C601009779F5E114EB
:10385000F104A1F50115110531F081EE0E948404F7
:10386000C6010097C9F5CD2B31F08CE20E94D1043E
:10387000C114D104C9F5CDB7DEB7E9E00C94352AFF
:1038800081EE0E943C04C601009789F2EFE9FFE057
:103890003197F1F700C000000197F6CFEFE9FFE0A4
:1038A0003197F1F700C000000197C8CFEFE9FFE0C2
:1038B0003197F1F700C000000197C7CF86EE0E9454
:1038C0008404C601009731F2EFE9FFE03197F1F788
:1038D00000C000000197F6CFEFE9FFE03197F1F764
:1038E00000C000000197BDCF8FE99FE00197F1F77D
:1038F00000C0000091E0C91AD108BACFA0E0B0E042
:10390000E4E8FCE10C94192A7C01D62F172F042F30
:103910008D2F912FF70109958115B9F0813009F0AC
:1039200060C08D2F912FF7010995C82F813091F438
:103930008D2F912FF70109950E94D104802F90E0DF
:10394000009709F046C0C111E3CFCDB7DEB7E9E07B
:103950000C94352A823039F48D2F912FF701099577
:103960000E943C04EBCF833039F48D2F912FF70167
:1039700009950E948404E2CF843001F78D2F912FA6
:10398000F7010995C82FC12CD12C8AE0B82E2C2F15
:103990002053330BC9012A30310568F0C114D1041A
:1039A00069F28FE99FE00197F1F700C0000091E014
:1039B000C91AD108F3CFBC9C9001BD9C300D1124D5
:1039C0006C01C20ED31E8D2F912FF7010995C82FC0
:1039D000DECFEFE9FFE03197F1F700C0000001977B
:1039E000AFCF602F0E94D91B93CF0F931F93CF931C
:1039F000DF93C42FD22FFC0185818115C9F040933C
:103A00008F020E94502290938E0280938D0280E25A
:103A10008C0F883040F4C77081E001C0880FCA95D0
:103A2000EAF70E94DA04DF91CF911F910F91089578
:103A300010918F02141333C080918D0290918E02E9
:103A40000E94DF21883C910550F5C0E2CD0F1D1783
:103A5000C1F080E2810F883040F4177081E001C02E
:103A6000880F1A95EAF70E94E104C83050F491E0FB
:103A70008D2F877001C0990F8A95EAF7892F0E94D0
:103A8000DA04802F0E94D104C83068F6D77081E034
:103A900001C0880FDA95EAF70E94E104C4CF80E202
:103AA0008C0F883008F0BFCFC77081E001C0880F4D
:103AB000CA95EAF7F1CF0F93DB01FC01E851FC470F
:103AC000E730F10598F5EA5BF44D0C94032A06E221
:103AD00021EE41EE6AE17CE7CD010E94F51C80E019
:103AE0000F91089507E225EE45EE6BE17CE7F4CFF8
:103AF00006E221EE40EE68E17CE7EECF07E225EE3C
:103B000044EE69E17CE7E8CF06E221EE42EE6CE1AB
:103B10007CE7E2CF07E225EE46EE6DE17CE7DCCF05
:103B200008E221E045EE6EE17CE7D6CF15968C9158
:103B3000811110928F0281E0D3CFCF93DF939C014C
:103B4000FB0127378CE7380739F028373C47F1F07D
:103B500081E0DF91CF9108958581811591F00E94D8
:103B6000CF1D0E94A8070E94D51DD82F0E94D21DEC
:103B7000C82F0E94CF1D4D2F6C2F0E94D80880E0C7
:103B8000E8CF0E94CF1D0E94B407EDCF858181153B
:103B900019F00E94D21DE5CF0E94D21DF4CF809172
:103BA00014010895809113010895809112010895E0
:103BB00084E290E00E94A02A853289F485E290E0B8
:103BC0000E94A02A833059F486E290E00E94A02A45
:103BD00091E0863109F090E0892F8170089580E0AE
:103BE000FCCFCF93C82F65E2811101C06FEF84E253
:103BF00090E00E94C42A63E0C11101C06FEF85E22A
:103C000090E00E94C42A66E1C11101C06FEF86E214
:103C100090E00E94C42ACF910895089587E290E031
:103C20000E94A02A682F70E080E090E00895089537
:103C3000CF93C62F0E94171E6C2F87E290E00E9440
:103C4000C42ACF91089580E00E94F11D60E070E0E9
:103C5000CB010E94181E0E9478170E942A1881E04A
:103C60000E94F11D08950E940D1E0E940E1E0E94CA
:103C7000171E0E94D81D811102C00E94231E0895A4
:103C80000E94441608959C01FB018581811551F025
:103C9000A90157574038510530F4822F0E943A1835
:103CA00080E0089581E008952FEFFC0120830895BE
:103CB00080E00895CF93DF93EC0188818330F1F0A9
:103CC00038F4813071F0823081F0DF91CF91089526
:103CD0008430D9F70E94E91389830E94EC138A8308
:103CE000F4CF0E94EF138983F0CF0E9488138115CF
:103CF00019F00E947F13F7CF80E0F5CF0E94CC131C
:103D0000F2CFCF93DF93EC018881833039F138F41F
:103D1000813069F08230B1F0DF91CF910895843025
:103D2000D9F70E94EF13482F6A81898108C0D98191
:103D30000E94EC13C82F0E94E9134D2F6C2F0E9494
:103D40000C15EACF8981811103C00E945715E4CF79
:103D50000E943A1689810E94F515DECF89810E9462
:103D6000E513DACFFC019C012E5F3F4F9081983024
:103D700041F0993051F0973059F4C9010E94811EE9
:103D80000895C9010E945A1E08950E945E13089565
:103D90008FEF80830895FC018181823021F4CF016F
:103DA0000E94B21E0895CF010E94541E0895CF9222
:103DB000DF92FF920F931F93CF93DF93EC01F62EC8
:103DC0000E94581E811110C0E881E150E331E0F4F7
:103DD000F0E0E35BF44D0C94032A19828CE08A83B3
:103DE0006F2DCE010E940C23DF91CF911F910F9177
:103DF000FF90DF90CF90089589818330F9F038F4F7
:103E0000813061F0823099F08FEF8883E9CF843080
:103E1000D9F71A821B821C821D82E2CF0E945C228B
:103E20000E94092A6A837B838C839D83D9CF0E9459
:103E30000E1E1A821B821C826D83D2CF0A8110E073
:103E40006E0183E0C80ED11C053011054CF6802FA1
:103E50000E949810F60181936F010F5F1F4FF4CFFE
:103E60008981823031F0853079F68A810E94401E46
:103E7000B7CF6A817B818C819D810E94092A0E9433
:103E8000181EAECF4B816A8189810E943A1798270C
:103E9000892798279D838C83A3CF2C813D8132274E
:103EA000232732274B816A8189810E945C1798CF32
:103EB0000E94781795CF6F2DCE010E94CB1E90CF18
:103EC0000E94E21789838CCF0E94E41798278927E4
:103ED00098279A83898384CF6B8170E089819A8146
:103EE000AE014C5F5F4F9827892798270E94E717FC
:103EF00077CF6B8170E089819A81AE014C5F5F4F13
:103F00009827892798270E9409186ACF0E942A18A3
:103F100067CF0E942817D6CF6B8170E089819A8184
:103F2000AE014C5F5F4F9827892798270E9498170A
:103F300057CF6B8170E089819A81AE014C5F5F4FF2
:103F40009827892798270E94B7174ACF9093950200
:103F5000809394020895E0919402F0919502309735
:103F600029F00190F081E02D0995089580E00895F1
:103F7000E0919402F0919502309721F00280F38154
:103F8000E02D09950895DC01E0919402F0919502ED
:103F9000309739F086E08C930480F581E02DCD01D7
:103FA00009950895DC01E0919402F0919502309713
:103FB00039F082E08C930680F781E02DCD010995E0
:103FC0000895A3E0B0E0E7EEFFE10C94202A9C0105
:103FD000809192029091930282179307A1F03093FF
:103FE000930220939202E0919402F091950230970F
:103FF00051F083E089833B832A830084F185E02D9F
:10400000CE01019609952396E2E00C943C2AA3E0A8
:10401000B0E0EDE0F0E20C94202A9C018091900247
:104020009091910282179307A1F03093910220930F
:104030009002E0919402F0919502309751F084E063
:1040400089833B832A830084F185E02DCE0101968C
:1040500009952396E2E00C943C2ACF93DF93C0911C
:104060000201D091030122960E949E21813081F4A9
:1040700080919F0287FF0CC0C0910001D091010187
:1040800022969EE180E0915028F4DF91CF9108952F
:1040900096E0F8CF29912115B1F38F5FF4CFCF933C
:1040A000C82F811102C080E031C00E949E21813062
:1040B00021F480919F0287FD0EC0809102019091B2
:1040C0000301FC013296089621912C1709F1E8179B
:1040D000F907D1F7E8CF8C2F869586958695C03F56
:1040E00010F7E0910001F0910101E80FF11D22812C
:1040F00030E0C77081E090E002C0880F991FCA9538
:10410000E2F72823392381E0232B69F2CF91089528
:1041100081E0FCCF9C01FC0132968FEF90E0419151
:10412000461751F08F3F19F4411101C0892F9F5F4D
:104130009630A9F78F3F09F40895280F311D87FDA8
:104140003A95F901628308959C01FC013296285F3B
:104150003F4F8191861302C0DF011E92E217F307E1
:10416000C1F70895FC01862F869586958695603F58
:1041700060F4E80FF11D677021E030E001C0220F0C
:104180006A95EAF78281822B82830895FC01862F4B
:10419000869586958695603F80F4E80FF11D6770DF
:1041A00081E090E09C0102C0220F331F6A95E2F784
:1041B000B90160958281682362830895CF93C82FE7
:1041C0000E949E216C2F813061F480919F0287FFB5
:1041D00008C080910001909101010E94B220CF910E
:1041E000089580910201909103010E948A20F7CFE7
:1041F000CF93C82F0E949E216C2F813061F4809153
:104200009F0287FF08C080910001909101010E94E8
:10421000C620CF91089580910201909103010E94E0
:10422000A420F7CF0E949E21813079F480919F02D3
:1042300087FF0BC0E0910001F091010132968EE101
:10424000DF011D928A95E9F70895E0910201F0914E
:104250000301329686E0F4CFDC01FB0111969C91BC
:1042600011978181981322C012968C911297811513
:1042700019F0928189131AC013968C9113978115A6
:1042800019F09381891312C015968C911597811599
:1042900019F0958189130AC014969C91911521F00B
:1042A00081E02481291303C080E001C081E0817096
:1042B000089508950E94592108958F5F80931801F1
:1042C000609115017091160180911701909118016C
:1042D0000E945A21089583E080931801609115018E
:1042E0007091160180911701909118010E945A2136
:1042F00008950E945D21089581E0809318016091E6
:1043000015017091160180911701909118010E947A
:104310005A2108950E947C21089591E0811101C0E5
:1043200090E09093170160911501709116018091B2
:104330001701909118010E945A2108958091170148
:104340000895809316016091150170911601809176
:104350001701909118010E945A2108958091160129
:104360000895809315016091150170911601809157
:104370001701909118010E945A210895809115010A
:104380000895089508950E94C221089508950895FA
:104390000E94C1210895CF930E94C6210E944F110F
:1043A0000E94C721C0E08C2F0E949810811105C087
:1043B000CF5FC530C1F7CF91089581E0FCCFCF9397
:1043C000DF93EC010E9450228C1B9D0BDF91CF915B
:1043D000089585B7806885BF85B7806885BF0895D3
:1043E0001F921FB61F9211248F939F93AF93BF9379
:1043F00080919602811113C08091C5029091C602EE
:10440000A091C702B091C8024196A11DB11D809331
:10441000C5029093C602A093C702B093C802BF9191
:10442000AF919F918F911F901FBE1F901895809103
:10443000CD02843031F10E94B3031092960288E1DC
:1044400090E020E40FB6F894A895809360000FBE2A
:104450002093600083B7817F846083BF83B78160CE
:1044600083BF7894889583B78E7F83BF0FB6F89407
:10447000A895809160008861809360001092600030
:104480000FBE08950E9427070E94BA03089582E094
:1044900084BD93E095BD9AEF97BD80936E0008951B
:1044A0002FB7F8948091C5029091C602A091C702DF
:1044B000B091C8022FBF08952FB7F8946091C5023C
:1044C0007091C6028091C7029091C8022FBF0895D3
:1044D00078941F921FB61F9211248F939F93AF93CE
:1044E000BF938091C5029091C602A091C702B0917E
:1044F000C8020196A11DB11D8093C5029093C6020A
:10450000A093C702B093C802BF91AF919F918F91C2
:104510001F901FBE1F90189581E08093E00080E2FD
:104520008093D8001092C9008FE19EE40197F1F7C3
:1045300000C0000087E090EBDC018093D6029093EE
:10454000D702A093D802B093D90288E19CE00FB6BD
:10455000F894A895809360000FBE90936000FFCF01
:1045600088E19CE00FB6F894A895809360000FBE98
:1045700090936000FFCF282FCB01BA013091CD027C
:104580003430D9F42F702093E9002FEF3091E800F8
:1045900035FD06C035ED3A95F1F700002A95B1F7E3
:1045A0002091E80025FF09C040E050E00E94052569
:1045B0008091E8008E778093E8000895BC0143E085
:1045C00050E084E00E94BB220895BC0146E050E028
:1045D00084E00E94BB220895BC0140E250E084E0E8
:1045E0000E94BB220895CF93DF93D82FC92F0E943A
:1045F0009E2148E050E06D2F7C2F81E00E94BB227D
:1046000088E0ED2FFC2FA7E9B2E001900D928A958A
:10461000E1F7DF91CF910895792F603231F440E2D4
:1046200050E0682F82E00E94BB220895A0E2B0E033
:10463000ECE1F3E20C94202A8091CD02843009F55C
:1046400083E08093E9008091E80082FF1AC08091A6
:10465000E80090E085FF09C040E050E060E270E0D3
:10466000CE0101960E94552591E08091E8008B775C
:104670008093E800911529F060E2CE0101960E9436
:10468000D71EA096E2E00C943C2A8091CC028111C6
:1046900009C00E94DE260E943B278091E2008460D0
:1046A0008093E20008951092CC0208950E947C212C
:1046B00081E00E948D2108956091C90281E061111D
:1046C00001C080E00E946B2108959091CD0281E0AD
:1046D000943009F080E06091C9020E947921089528
:1046E00042E061EC81E00E945A2642E261EC84E003
:1046F0000E945A2642E261EC82E00E945A2642E27F
:1047000060EC83E00E945A269091CD0281E09430C3
:1047100009F080E06091C9020E945D2108958091B6
:10472000CF02893089F148F4823009F4A1C0833086
:1047300009F45BC0813041F008958A3009F488C0E3
:104740008B3009F46DC008958091CE02813A09F052
:104750004BC08091E800877F8093E8008091D2026F
:104760009091D302892B61F060E080E090E070E0EE
:104770000E94A5258091E8008B778093E80008953A
:1047800068E087E992E0F3CF8091CE02813261F553
:104790008091D2029091D3028D7F892B29F580914F
:1047A000E800877F8093E8008091E80082FF18C0CE
:1047B0009091F3008091F200029731F48091F10022
:1047C000813011F0863021F48091F1000E94A12106
:1047D0008091E8008B778093E8000E948E260895F0
:1047E0008091CD028111E0CF08958091CE02813A6F
:1047F000D9F78091D2029091D302892BA9F78091A9
:10480000E800877F8093E8008091E80080FFFCCF7C
:104810000E949E218093F1008091E8008E77DBCF8B
:104820008091CE02813201F78091D2029091D30221
:10483000892BD1F68091E800877F8093E8000E9461
:104840008E268091D0020E948D210E942707089514
:104850008091CE02813241F68091E800877F80937B
:10486000E8000E948E268091D1020E94B121089515
:104870008091CE02813A09F0B7CF8091E800877F1E
:104880008093E8008091E80080FFFCCF0E94BE2169
:10489000C1CF84B7877F84BF0FB6F894A895809165
:1048A0006000886180936000109260000FBE80E815
:1048B00090E00FB6F89480936100909361000FBE72
:1048C0000E948A2108950E94DE260E943B27E2EE84
:1048D000F0E080818460808378940E94C1290895EB
:1048E00089E191E00E94A61F08958091CD02853054
:1048F00031F48091CD02853019F00E944222089552
:104900000E9417220E94CB21811599F38091CB023E
:10491000811579F30E94EF240E942707EACF0895BA
:104920009A014091D4025091D5020E949824089592
:10493000FC01AB01D901892F992783309105C1F082
:1049400068F48130910509F445C0029761F48BE564
:1049500090E020EC32E02D933C9308958132910554
:10496000E1F0829739F180E090E020E030E0F3CF91
:10497000CF019927E13059F08230910559F0ECEBE5
:10498000F2E0892B81F7849190E09F01E4CFE8EA7F
:10499000F2E0F9CFEAE8F2E0F6CF6330710518F7FC
:1049A000FB01EE0FFF1FEC54FE4F2081318189E0A7
:1049B00090E0D1CF63307105B0F6FB01EE0FFF1F21
:1049C000E255FE4F2081318145555E4FFA018081CD
:1049D00090E0C1CF82E190E02BE133E0BCCF80E1F9
:1049E00089BD82E189BD09B400FEFDCF8091D80068
:1049F0008F7D8093D8008091E00082608093E000FA
:104A00008091E00081FDFCCF0895AF92BF92CF92DC
:104A1000DF92EF92FF920F931F93CF936C018B0164
:104A20007A010E94AD26C82F811123C0E114F10440
:104A300039F0F70180819181081B190BC80ED91E2E
:104A4000A12CB12C01151105A1F08091E80085FD84
:104A500021C08091E8008E778093E800E114F10492
:104A600099F0F701808191818A0D9B1D918380834C
:104A7000C5E08C2FCF911F910F91FF90EF90DF90A9
:104A8000CF90BF90AF9008950E94AD268115E9F2B6
:104A9000C82FEFCFF60181916F018093F100015093
:104AA0001109FFEFAF1ABF0ACDCFAF92BF92CF92DD
:104AB000DF92EF92FF920F931F93CF936C018B01C4
:104AC0007A010E94AD26C82F811123C0E114F104A0
:104AD00039F0F70180819181081B190BC80ED91E8E
:104AE000A12CB12C01151105A1F08091E80085FDE4
:104AF00021C08091E8008B778093E800E114F104F5
:104B000099F0F701808191818A0D9B1D91838083AB
:104B1000C5E08C2FCF911F910F91FF90EF90DF9008
:104B2000CF90BF90AF9008950E94AD268115E9F215
:104B3000C82FEFCF8091F100F60181936F010150F2
:104B40001109FFEFAF1ABF0ACDCFFC019B01809185
:104B5000D4029091D5028617970718F0672B61F061
:104B6000C90140E0009771F441110CC08091E80048
:104B700082FF35C080E008958091E8008E778093B1
:104B8000E800EECF2091CD022115A9F12530A9F141
:104B90002091E80023FD2DC02091E80022FDE6CF02
:104BA0002091E80020FFDECF3091F3002091F20049
:104BB000009719F02830310558F041E028303105D0
:104BC00009F040E02091E8002E772093E800CACF5A
:104BD00041914093F10001972F5F3F4FE9CF8091C2
:104BE000CD02811541F0853041F08091E80083FFCE
:104BF000BDCF81E0089582E0089583E00895FC012F
:104C00009B018091D4029091D5028617970718F0E6
:104C1000672B61F0C90140E0009771F441110CC0AD
:104C20008091E80082FF36C080E008958091E8001E
:104C30008E778093E800EECF2091CD022115B1F15F
:104C40002530B1F12091E80023FD2EC02091E8002D
:104C500022FDE6CF2091E80020FFDECF3091F30067
:104C60002091F200009719F02830310558F041E00A
:104C70002830310509F040E02091E8002E7720939C
:104C8000E800CACF44914093F100319601972F5F1D
:104C90003F4FE8CF8091CD02811541F0853041F042
:104CA0008091E80083FFBCCF81E0089582E0089501
:104CB00083E00895982F973028F08F708093E90053
:104CC00081E008959093E900242F762F50E0981703
:104CD00031F07091EC002091ED005091F00021FD39
:104CE00002C09F5FE8CF3091EB003E7F3093EB0036
:104CF0003091ED003D7F3093ED003091EB0031605D
:104D00003093EB007093EC002093ED005093F00093
:104D10002091EE0027FDE5CF80E008958091CE023E
:104D200087FF13C08091E80082FF06C08091E800F1
:104D30008B778093E80008958091CD028111F2CFA6
:104D400008958091CD028115D9F38091E80080FF0C
:104D5000F8CF8091E8008E77ECCF2091E40030917D
:104D6000E50095E6A9012091EC00822F817020FFDB
:104D700006C08091E80080FF06C080E00895209181
:104D8000E80022FD1AC08091CD02811589F085309E
:104D900089F08091EB0085FD0FC02091E4003091F7
:104DA000E50042175307F9F29A95E1F684E0089579
:104DB00082E0089583E0089581E008950E944D27E0
:104DC0000E945527E0EEF0E0808181608083E8ED6D
:104DD000F0E080818F77808319BCA7EDB0E08C91E3
:104DE0008E7F8C9380818F7E80831092CC02089579
:104DF0000F931F93CF93DF930E944D270E94552757
:104E0000C8EDD0E088818F77888388818068888327
:104E100088818F7D888319BC1092CD021092C902BF
:104E20001092CB021092CA0200EE10E0F8018081CD
:104E30008B7F808388818160888342E060E080E0AE
:104E40000E945A26E1EEF0E080818E7F8083E2EEC0
:104E5000F0E0808181608083808188608083F801B8
:104E600080818E7F8083888180618883DF91CF916C
:104E70001F910F910895E8EDF0E080818F7E80838F
:104E8000E7EDF0E080818160808384E082BF81E093
:104E90008093CC020E94F8260895E8EDF0E080812E
:104EA0008E7F80831092E20008951092DA001092B3
:104EB000E10008951F920F920FB60F9211242F93C5
:104EC0003F934F935F936F937F938F939F93AF9392
:104ED000BF93EF93FF938091E10082FF0BC080911D
:104EE000E20082FF07C08091E1008B7F8093E100A8
:104EF0000E94C0298091DA0080FF19C08091D800FB
:104F000080FF15C08091DA008E7F8093DA00809157
:104F1000D90080FF94C080E189BD82E189BD09B4D8
:104F200000FEFDCF81E08093CD020E944523809159
:104F3000E10080FF19C08091E20080FF15C08091E0
:104F4000E2008E7F8093E2008091E2008061809396
:104F5000E2008091D80080628093D80019BC85E07F
:104F60008093CD020E945C238091E10084FF29C0E0
:104F70008091E20084FF25C080E189BD82E189BD86
:104F800009B400FEFDCF8091D8008F7D8093D800BA
:104F90008091E1008F7E8093E1008091E2008F7E1E
:104FA0008093E2008091E20081608093E200809132
:104FB000C902811509F449C084E08093CD020E94A2
:104FC00065238091E10083FF29C08091E20083FF87
:104FD00025C08091E100877F8093E10082E080938B
:104FE000CD021092C9028091E1008E7F8093E10092
:104FF0008091E2008E7F8093E2008091E2008061E8
:105000008093E20042E060E080E00E945A268091B6
:10501000F00088608093F0000E945623FF91EF918A
:10502000BF91AF919F918F917F916F915F914F91C0
:105030003F912F910F900FBE0F901F90189519BCA4
:105040001092CD020E94532372CF8091E30087FF1C
:1050500002C083E0B2CF81E0B0CF1F920F920FB6B3
:105060000F921124EF92FF920F931F932F933F9370
:105070004F935F936F937F938F939F93AF93BF9360
:10508000CF93EF93FF9309EE10E0F8018081C09178
:10509000EC008F70C795CC27C795C82B108280EF86
:1050A000E82EF12CF7018081877F808378940E941D
:1050B0007828F8011082F701808188608083CF70A2
:1050C000F801C083FF91EF91CF91BF91AF919F9174
:1050D0008F917F916F915F914F913F912F911F9190
:1050E0000F91FF90EF900F900FBE0F901F901895AB
:1050F000AAE2B0E0EEE7F8E20C941E2A8EEC92E011
:10510000FC0101962091F100208322E0863D920768
:10511000B9F70E948F238091E80083FF38C0809107
:10512000CE029091CF029A3090F5E92FF0E0E05A4C
:10513000F44D0C94032A803889F0823841F580912F
:10514000D2028F70873018F58093E9008091EB00D0
:1051500085FB882780F91092E90006C08091CB0278
:10516000880F9091CA02892B9091E800977F9093C5
:10517000E8008093F1001092F1008091E8008E77B2
:1051800023C0811116C08091D002813011F180912D
:10519000E80083FF0AC08091E800877F8093E800E1
:1051A0008091EB0080628093EB00AA96E4E00C947F
:1051B0003A2A823061F78091D002811589F01092ED
:1051C000E9008091E800877F8093E8000E948E26A6
:1051D000DECF81E0933009F080E08093CB02EFCF07
:1051E0008091D2028F702FEF280F263080F68093A7
:1051F000E9002091EB0020FFE2CF933031F4809161
:10520000EB0080628093EB00DACF9091EB0090612D
:105210009093EB0021E030E0A90102C0440F551F3C
:105220008A95E2F74093EA001092EA008091EB0041
:105230008860E8CF8111ABCF1091D0021F778091A9
:10524000E3008078812B8093E3008091E800877FE2
:105250008093E8000E948E268091E80080FFFCCFBA
:105260008091E30080688093E30083E0111101C026
:1052700082E08093CD028BCF8058823008F087CFB8
:105280008091D0029091D1028C3D53E0950799F521
:1052900083E08A838AE289834FB7F894DE0113960C
:1052A00020E03EE051E2E32FF0E05093570084917C
:1052B00020FF03C082958F703F5F8F708A30C8F0E7
:1052C000895C90E08D939D932F5F243161F74FBFF0
:1052D0008091E800877F8093E8006AE270E0CE0169
:1052E00001960E94A5258091E8008B778093E800C5
:1052F0004ECF805DE6CF6091D2027091D302AE01B5
:105300004F5F5F4F0E9490248C01892B09F43FCF9F
:105310008091E800877F8093E800B80189819A81B5
:105320000E94FF25E0CF803809F031CF8091E8005E
:10533000877F8093E8008091C9028093F1001DCFA0
:10534000811125CF9091D002923008F020CF80912A
:10535000E800877F8093E8009093C9020E948E2620
:105360008091C902811531F084E08093CD020E94C2
:1053700070230DCF8091E30087FDF6CF81E0F5CF5C
:105380000895CF938091CD02811599F08091E90025
:10539000C091EC008F70C795CC27C795C82B109291
:1053A000E9008091E80083FD0E947828CF70C093C7
:1053B000E900CF910895AA1BBB1B51E107C0AA1FAA
:1053C000BB1FA617B70710F0A61BB70B881F991FA6
:1053D0005A95A9F780959095BC01CD01089597FB4A
:1053E000072E16F4009407D077FD09D00E94DB2920
:1053F00007FC05D03EF4909581959F4F08957095D8
:1054000061957F4F0895EE0FFF1F0590F491E02DF9
:105410000994692796276927782787277827089589
:105420002F923F924F925F926F927F928F929F92B4
:10543000AF92BF92CF92DF92EF92FF920F931F93A2
:10544000CF93DF93CDB7DEB7CA1BDB0B0FB6F89453
:10545000DEBF0FBECDBF09942A88398848885F8493
:105460006E847D848C849B84AA84B984C884DF8004
:10547000EE80FD800C811B81AA81B981CE0FD11DE8
:105480000FB6F894DEBF0FBECDBFED010895002E1C
:10549000083090F0982F872F762F652F542F432FA9
:1054A000322F22270850F4CF220F331F441F551FDD
:1054B000661F771F881F991F0A95B2F7002D089560
:1054C00097FD1094002E083098F00850232F342FA9
:1054D000452F562F672F782F892F912DF4CF1594B4
:1054E000979587957795679557954795379527951C
:1054F0000A95AAF71124002D0895FC01415050404F
:1055000030F001900616D1F73197CF010895882722
:1055100099270895FB01DC0104C08D910190801949
:1055200021F441505040C8F7881B990B0895FB01A6
:10553000DC0102C001900D9241505040D8F708950F
:10554000F999FECF92BD81BDF89A992780B508954B
:10555000A6E1B0E044E050E00C94EA2AA8E1B0E013
:1055600042E050E00C94EA2ADC01A40FB51F415040
:10557000504048F0CB01840F951F2E910E94C52A00
:1055800041505040D0F70895262FF999FECF92BD93
:1055900081BDF89A019700B4021639F01FBA20BDF8
:1055A0000FB6F894FA9AF99A0FBE08950396272F2A
:1055B0000E94C52A0E94C42A252F0E94C52A242F92
:1055C0000C94C52A0196272F0E94C52A0C94C42A40
:1055D000DC01CB01FC01F999FECF06C0F2BDE1BDB3
:1055E000F89A319600B40D9241505040B8F70895A2
:1055F000F894FFCF260526056A056A05CE05EB055A
:1056000055055505F005610672067206031207126C
:105610000C12111216121B12201225122A122F120E
:105620003412EC185D19F418BE18C218F818C61810
:10563000FC180819D2185619D6180C19DA181019AE
:105640003519DE1814193C19E4181A192219CA1848
:105650000019CE180419E8181E192C1945195419E7
:10566000B818F0186419031A091A0C1A121A271A12
:10567000271A271A271A271A271A271A271A151A34
:105680001A1A1E1A241A351A3B1A3F1A781D7E1D43
:10569000671D721D841D8A1D901DED1EFC1E301F8E
:1056A000421F4D1F581F5B1F5B1F5B1F041F041F02
:1056B000601F641F6C1F791F861F891F8C1F991F15
:1056C0009B28C128C728C128C7281A293C29C728D0
:0456D0009329A02951
:1056D40039025902000600060601280850011E0A74
:1056E400140103020100000100AE21F322EC22E5C3
:1056F40022DE22E200E900EA00B500B600B700CDE0
:10570400008301CC008A0192019401210223022426
:10571400022502260227022A02B300B4006F007099
:10572400009F01CB019F02A002E200E900EA00B55C
:1057340000B600B700CD008301CC008A0192019429
:10574400012102230224022502260227022A02B38F
:1057540000B4006F0070009F01CB019F02A002679C
:10576400663635F0F1F4F5F600010202020505058E
:10577400050505A716A916B416CD164422B60504C8
:0A5784002D034F03D202EB020B03CA
:00000001FF
