:100000000C94AC010C94E4010C94E4010C94E40114
:100010000C94E4010C94E4010C94E4010C94E401CC
:100020000C94E4010C94E4010C947B210C944E227A
:100030000C94A41C0C94E4010C94E4010C94E401D1
:100040000C94E4010C94E4010C94E4010C94E4019C
:100050000C94E4010C941C1D0C94E4010C94E40138
:100060000C94E4010C94E4010C94E4010C94E4017C
:100070000C94E4010C94E4010C94E4010C94E4016C
:100080000C94E4010C94E4010C94E4010C94E4015C
:100090000C94E4010C94E4010C94E4010C94E4014C
:1000A0000C94E4010C94E4010C94E40183005400EA
:1000B000550056005F006000610000005C005D00BC
:1000C0005E00570059005A005B000000E700620024
:1000D00063005800643214783C1E000101010101E4
:1000E00001010101020202020202020202030303F1
:1000F00003030303030404040404040405050505C1
:100100000506060606060707070707080808080980
:100110000909090A0A0A0B0B0B0C0C0C0D0D0D0E2C
:100120000E0E0F0F0F1010111111121213131414C1
:10013000151516161717181819191A1A1B1B1C1D36
:100140001D1E1E1F2020212222232424252626278F
:100150002829292A2B2C2D2D2E2F303132323334C1
:1001600035363738393A3B3C3D3E3F4041424344C7
:1001700045464748494A4C4D4E4F505153545556A9
:1001800058595A5B5D5E5F616264656668696B6C55
:100190006D6F7072737577787A7B7D7E80828385D0
:1001A00087888A8C8E8F91939596989A9C9EA0A210
:1001B000A3A5A7A9ABADAFB1B3B5B7BABCBEC0C21A
:1001C000C4C6C9CBCDCFD1D4D6D8DBDDDFE2E4E7DE
:1001D000E9EBEEF0F3F5F8FAFDFF1C0366006100B1
:1001E0006C0073006F006E00690078002F006600DD
:1001F00078003100390000001203460061006C00F5
:1002000073006F006E0069007800000004030904A9
:1002100009023B00020100A0FA09040000010301E9
:100220000100092111010001224400070581030892
:10023000000109040100010300000009211101006F
:100240000122B6000705820320000112010002000E
:1002500000000858460000000101020001050109E4
:1002600002A10185020901A100050919012908154A
:100270000025019508750181020501093009311534
:1002800081257F95027508810609381581257F959E
:100290000175088106050C0A38021581257F950134
:1002A00075088106C0C005010980A10185031901F7
:1002B0002AB700150126B700950175108100C00509
:1002C0000C0901A101850419012AA002150126A02B
:1002D00002950175108100C005010906A10185067E
:1002E000050719E029E71500250195087501810228
:1002F0000507190029EF1500250195F07501810208
:1003000005081901290595057501910295017503E7
:100310009101C005010906A101050719E029E715AA
:100320000025019508750181029501750881010577
:1003300007190029FF150026FF00950675088100A2
:10034000050819012905150025019505750191027A
:10035000950175039101C00011241FBECFEFDAE0B3
:10036000DEBFCDBF04B603FE18C08091C9029091D4
:10037000CA02A091CB02B091CC028730904BA7402B
:10038000B04B59F41092C9021092CA021092CB02DB
:100390001092CC02E0E0F8E3099511E0A0E0B1E0B2
:1003A000E2EEFAE402C005900D92A83AB107D9F73F
:1003B00022E0A8EAB1E001C01D92A93CB207E1F732
:1003C0000E945D110C9412250C940000811111C043
:1003D000653078F4443068F484E0689FF0011124BB
:1003E000E40FF11DEE0FFF1FE455FF4F859194912F
:1003F000089581E090E008950E94E601089581E06B
:10040000089581E008950E94FF01089581E0089514
:1004100081E0089581E008950E940A0208950895F8
:1004200008950E940F02089508950895A6E0B0E08F
:10043000ECE1F2E00C94392449835A839E83309195
:10044000AF0189819A8131111AC03E81311599F02D
:10045000211589F00E940A08182F682F89819A8136
:100460000E94E70769817A81812F0E94090F2696F1
:10047000E3E00C9455240E94F807182FF3CF0E9454
:100480000A0869817A81F1CFFC01262F40815181D0
:1004900062817381848195810E9416020895CF93B1
:1004A000DF93D82FC92F61E00E9444026D2F7C2F6B
:1004B0000E940102811549F061E08D2F9C2F0E945E
:1004C00044026D2F7C2F0E940302DF91CF9108958B
:1004D0000F931F93CF93DF93D82FC92F60E00E9413
:1004E00044028C016D2F7C2F0E9410026D2F7C2FF7
:1004F000C8010E941102DF91CF911F910F910895C1
:1005000021E030E0A90102C0440F551F8A95E2F7AF
:10051000CA010E9409070895CF93C82F81E090E097
:100520000C2E02C0880F991F0A94E2F70E94670CF4
:100530008C2F0E948002CF91089581E0089581E080
:1005400008950E949D020895CF93C82F0E94B3067C
:100550008C2F0E949F028C2F0E94A1022FEF84E318
:100560009CE0215080409040E1F700C00000CF9116
:10057000089581E00E94A4020E94401D089580E039
:100580000E94A4020E94641D08950F931F93CF93AD
:10059000DF938C0161E00E944402EC01F801858147
:1005A00081110E94D115B801CE010E940802811567
:1005B00009F449C0B801CE010E940C02811509F46A
:1005C00042C0B801CE010E94181A8115E1F1B801AC
:1005D000CE010E946D168115B1F1B801CE010E94C5
:1005E0004216811581F1B801CE010E947711811563
:1005F00051F1B801CE010E940C10811521F1F801D2
:100600008581811581F0CA35FCE7DF0739F178F47F
:10061000C130ECE7DE07F9F0C330FCE7DF07C9F0D3
:10062000C115DC4771F0C8010E9406020DC0CB3530
:10063000ECE7DE07B1F0CC35DC47A9F70E94390CB6
:10064000F2CF0E94B90280E0DF91CF911F910F910C
:1006500008950E944A0C0E94BF02F5CF0E94420CEE
:10066000E2CF0E94460CDFCF0E9414020E94771C4A
:100670000E94580308950E945C030E9415020E9484
:100680007C1C089581E008950895CF93DF93D82FBF
:100690000E944203C82F811519F08D2F0E94440338
:1006A0008C2FDF91CF91089508950E9445030895FE
:1006B00080E00E94550308950E945F1A0E9455032E
:1006C0000895CF930E945F1AC82F8091AA018C17BA
:1006D00079F0C093AA010E94101D6093AB01709342
:1006E000AC018093AD019093AE018C2F0E94550315
:1006F000CF910895ADE0B0E0E0E8F3E00C943A2447
:10070000488759876A877B878C879D8791110E94CC
:10071000450B1F8286E0FE013896DE01119601909E
:100720000D928A95E1F78D8181110DC029813A8161
:100730004B815C816D817E818F810E948F0A2D9615
:10074000E2E00C945624CE0101960E944F028111E2
:10075000EDCFF5CFFC018481813021F4808191813E
:100760000E943C080895611529F00E94D3170E9449
:10077000941808950E941C18FACFCF93C82F8115A2
:1007800099F08CEF8C0F813A88F48C2F0E94031B18
:10079000811529F08C2F0E94AC1B0E94DB0B8C2F43
:1007A0000E94921B0E94DB0BCF91089580E28C0F78
:1007B000883048F4C77081E001C0880FCA95EAF715
:1007C0000E94260BEFCF8BE58C0F833038F42C2F53
:1007D0002452330BC9010E94951AE6CFE8E5EC0FCD
:1007E000EB3150F4F0E0EE0FFF1FE05EFE4F808132
:1007F00091810E94BB1AD8CF83E38C0F8331A0F67E
:1008000061E08C2F0E94B303CFCF811581F19CEF63
:10081000980F913A28F40E94AC1B0E94DB0B0895BC
:1008200090E2980F983050F4877091E001C0990FD2
:100830008A95EAF7892F0E942C0BEFCF9BE5980F42
:10084000933028F480E090E00E94951A089598E58E
:10085000980F9B3128F480E090E00E94BB1A089525
:1008600093E3980F933118F460E00E94B303089566
:100870000F931F93CF93C82F8B010E94BD030115C7
:10088000110539F48C2F0E940504CF911F910F910F
:1008900008958FE99FE00197F1F700C00000015033
:1008A0001109EDCF60E570E0893311F060E070E090
:1008B0000E9438040895811521F00E94260B0E94A1
:1008C000DB0B0895811521F00E942C0B0E94DB0B9D
:1008D0000895A0E0B0E0EFE6F4E00C9434246C015D
:1008E000D62FC72FFC011581068102950F700E943B
:1008F0001B0BE82E8115F9F0E12E1115E1F08C2F7C
:10090000807F803461F080E28D0F8830F0F08C2F92
:10091000807E803221F4D230C0F00115B1F0809198
:10092000930282FF12C082E00E940C0C0E941B0BFB
:1009300091E0E82EE926EC2FE295EF70C03CB0F58F
:10094000F0E0EC5EFA4D0C942424E12CF4CF0C2F53
:100950000F70C03110F00295007F111599F001154C
:1009600059F080E28D0F883010F0D11107C0802F30
:100970000E94260B0E94DB0B8D2F4EC0802F0E9401
:10098000370BF8CF8D2F0E940504011579F080E216
:100990008D0F883010F0D11104C0802F0E942C0BD5
:1009A00003C0802F0E943D0B0E94DB0BE11409F471
:1009B000CBC00E94170B80FDC7C0F60115820E94B4
:1009C000110B0E944507C6010E947A060E94110B76
:1009D0000E945507B9C0FC2FFF70FF2EC07FC032A8
:1009E00019F0F29480EFF822D11541F0D130C9F11D
:1009F000111509F443C00115E9F0BECF80919302AF
:100A000082FD14C0111559F0F11429F08F2D0E94A8
:100A1000260B0E94DB0B80E00E94BD03C7CF80E065
:100A20000E940504F11411F28F2DB8CF111569F051
:100A3000011104C08F2D0E945B04B8CF013009F072
:100A4000B5CF8F2D0E945D0BB1CF0111AFCF8F2D90
:100A50000E9462048F2D0E94690B8F2D0E944C0B07
:100A6000A5CF111521F0063008F0A0CFE3CF053057
:100A700008F09CCF8F2D0E94620498CF0115D1F30E
:100A8000D93349F42FEF87EE93E021508040904016
:100A9000E1F700C000008D2F0E94050487CF8C2F46
:100AA000869586958370811569F0813009F07ECF37
:100AB0008D2F9C2F9370111102C080E090E00E9456
:100AC000BB1A74CF8D2F9C2F9370111102C080E040
:100AD00090E00E94951A6ACF612F8D2F0E94B30378
:100AE00065CF8C2F837081113DC0111129C04D2F0E
:100AF000429546954770440F440F2D2F2F7030E0DC
:100B0000042E02C0220F331F0A94E2F780E090E027
:100B1000D4FF09C08FE090E002C0880F991F4A956A
:100B2000E2F780959095C695C695C370822B932B5E
:100B3000C23091F0C33099F0C13059F00E941507CE
:100B40000E945F1A0E945503CDB7DEB7E8E00C940F
:100B500050240E940C07F4CF0E941E07F1CF0E9480
:100B60000907EECF111561F1C0FFEACF4D2F429575
:100B700046954770440F440F2D2F2F7030E0042E00
:100B800002C0220F331F0A94E2F780E090E0D4FF06
:100B900009C08FE090E002C0880F991F4A95E2F7E4
:100BA00080959095C695C695C370822B932BC230C5
:100BB00071F0C33079F0C13039F00E948007C0CFA6
:100BC000823008F4BDCFD2CF0E947707B9CF0E9400
:100BD0008907B6CF0E942D07B3CFCF70111539F01A
:100BE0008C2F0E9445078D2F0E945B04A9CF8D2F6B
:100BF0000E9462048C2F0E945507A2CFD23F41F180
:100C000070F4D03FC9F0D13F91F0111509F446C0FE
:100C1000011509F440C08D2F0E94BD0391CFD33F31
:100C2000F1F0D43F91F78091930282FD22C08C2F86
:100C30008F71111501F310C0111541F0053008F046
:100C40007FCF8C2F8F710E9467077ACF0630F7CF46
:100C50008C2F8F711111CFCF0E94450771CF1115C5
:100C600029F08C2F8F710E9439076ACF0E943407B8
:100C700067CF111531F063E08C2F8F710E94ED0B5F
:100C80005FCF81E00E940C0C023008F459CF82E063
:100C90000E940C0C55CF8C2F8F71DECF011579F08F
:100CA000D93349F4EFEFF7EE23E0E150F040204074
:100CB000E1F700C000008D2F0E94050441CF8C2F6A
:100CC0008F7199CF0F931F93CF93DF93EC016881BE
:100CD00079818D810E9449088C010E9492070E94AF
:100CE0000807B801CE010E946904DF91CF911F91DE
:100CF0000F910895CF93DF93EC018C81811599F0CA
:100D0000CE010E94C502811111C00E941B0B8115EA
:100D100051F08D81811539F08091930282FF03C0DB
:100D200082E00E940C0CDF91CF910895CE010E94C9
:100D30006206CE010E946802F6CF80E090E00E9439
:100D4000951A80E090E00E94BB1A0E94450B0E9419
:100D5000DB0B0E94B1180E94941808950E94C61BD4
:100D60000E949D0608950E94340B0E94AE060895CD
:100D7000282F92959F70963099F060F4925F9F7043
:100D8000923030F4203FB1F038F481E0283E38F062
:100D900080E008959A5FF3CF81E0243FC9F708957A
:100DA00091E0813F09F090E081E0283E08F080E08A
:100DB000892B089581E00895FC018481811539F023
:100DC000808191810E943C080E94B806089580E0CD
:100DD0000895A6E0B0E0EFEEF6E00C943A242696F3
:100DE000E2E00C945624A7E0B0E0E9EFF6E00C94C2
:100DF0003A242796E2E00C94562408950E94FD06BA
:100E000008950E94FE069093BF018093BE0108954D
:100E100008950E94010708952091BE013091BF01FD
:100E2000822B932B0E94010708952091BE013091DF
:100E3000BF01822393230E94010708952091BE01E0
:100E40003091BF01822793270E94010708950E94D5
:100E5000FD0608950E94270708950E942A0790938F
:100E6000BD018093BC01089580E090E00E942D07B1
:100E7000089521E030E0A90102C0440F551F8A9572
:100E8000E2F7CA010E942D07089521E030E002C078
:100E9000220F331F8A95E2F78091BC019091BD012A
:100EA000822B932B0E942D07089521E030E002C091
:100EB000220F331F8A95E2F7209530958091BC016F
:100EC0009091BD01822393230E942D07089521E074
:100ED00030E002C0220F331F8A95E2F78091BC01F7
:100EE0009091BD01822793270E942D07089520919C
:100EF000BC013091BD01822B932B0E942D070895D8
:100F00002091BC013091BD01822393230E942D07C3
:100F100008952091BC013091BD01822793270E9442
:100F20002D07089508959B01677091E001C0990F06
:100F30006A95EAF763E0369527956A95E1F7220FFF
:100F4000331F220F331FFA01E20FF31F40E050E07E
:100F5000682F70E08191DF019B01042E02C036955D
:100F600027950A94E2F7217021952827292328271D
:100F70002E934F5F5F4F4430510561F708959C01F8
:100F8000982F977083E0369527958A95E1F7220F81
:100F9000331F220F331FFB01E20FF31F40E050E02D
:100FA00080E0219130E0092E02C0369527950A9401
:100FB000E2F721703327042E01C0220F0A94EAF7CA
:100FC000822B4F5F5F4F4430510559F70895282F0A
:100FD000862F953060F4243050F434E0939FB001B4
:100FE0001124620F711D40EB51E00E949307089598
:100FF000282F953068F4843058F434E0939FC00172
:10100000112460EB71E0820F911D0E94BF070895CB
:1010100080E00895A0E0B0E0E0E1F8E00C94332433
:101020008C01E090BC01F090BD018091BE019091D7
:10103000BF01E82AF92ACFE0D0E0CC24C394D12C18
:10104000C6010C2E02C0880F991F0A94E2F78E2168
:101050009F21892B49F4219798F7B12C8B2DCDB77F
:10106000DEB7E9E00C944F24BC2EB8018C2F0E940F
:10107000150F019781F3F2CFCF93DF93D82FC92FAC
:101080000E940A086D2F7C2F0E94150FDF91CF91CF
:1010900008951F93CF93DF93162FD72F9091AF0111
:1010A000911541F0862F972F0E943C08DF91CF9138
:1010B0001F910895811581F0862F972F0E940A08AD
:1010C000C82F682F812F9D2F0E94E707612F7D2F4A
:1010D0008C2F0E94150FEACF862F972F0E94F807BA
:1010E000C82FF4CF0F931F93CF93E091C001C7E0B7
:1010F0008091C1018E1304C0CF911F910F9108956B
:101100000E2F10E0CE9FF0011124EE53FE4F2081F0
:101110003181428153816481758186810E94F30609
:10112000F8013196E770E4CF2091FA013091FB018C
:101130004091FC015091FD016091FE017091FF0111
:10114000809100020E94F306089580910002803190
:1011500078F48091FF01811559F0E091C001209150
:10116000C1013091FB014091FA0157E02E1301C0FB
:1011700008956E2F70E05E9FF0011124DF01AE53E1
:10118000BE4F14968C911497811561F111968C9134
:101190001197831327C08C91841324C015968C91CA
:1011A000159781111FC012968D919C91A091FC0101
:1011B000B091FD018A1B9B0B883C910598F48091AE
:1011C00000028F70806180930002E853FE4F80819F
:1011D0008F70806180838AEF91E00E947A060E947E
:1011E00072080895FB013196E770C0CFE091C0010D
:1011F0009091C10127E0E91302C080E00895AE2F6D
:10120000B0E02E9FF0011124EE53FE4F31813613D2
:1012100006C03081381303C03581341304C0FD018A
:101220003196E770E8CF81E008958F929F92AF9258
:10123000BF92DF92EF92FF920F931F93CF93DF93B2
:10124000CDB7DEB72D970FB6F894DEBF0FBECDBF7A
:101250008C0186E0F801DE01189601900D928A95C6
:10126000E1F7F801F58084819AEF892E91E0992EBB
:101270009091FE0191111BC0811509F4FFC0F1147A
:1012800009F440C1C8010E94DC06811509F43AC185
:1012900087E0F801D40101900D928A95E1F7C4012D
:1012A0000E94AA030E94A5080E949408E7C0E0805B
:1012B000A280B380D090FF012091FC013091FD010C
:1012C000A501421B530BD11409F4DBC0483C510566
:1012D00008F0A6C0811509F4D1C09091FB0191805E
:1012E00080910002803108F06BC0991228C0909163
:1012F000FA019E1124C0F1105DC08F70806180934F
:1013000000020E9494088AEF91E00E947A06809180
:101310000002F8018683F12C8F2D2D960FB6F894DC
:10132000DEBF0FBECDBFDF91CF911F910F91FF9018
:10133000EF90DF90BF90AF909F908F900895F11045
:1013400039C040E0692D8E2D0E94F60840E0692DDD
:101350008E2D0E94F608F82E8111DDCF88859985A3
:101360000E943C08292F22952F70903450F49F70D2
:10137000223080F0911599F0F8019681903178F43F
:10138000CBCF2A5F2F70223078F0C8010E947A06F6
:10139000FD2CC2CF911519F0811509F4BDCF805EE7
:1013A000883008F4B9CFF1CF803F08F4B5CF815F22
:1013B0008330F7CF80910002816080930002ABCF31
:1013C000991207C09091FA019E1103C0F11409F41B
:1013D00079C0C8010E94DC06811509F493C0F1149C
:1013E00009F490C080910002803288F02091FA01C7
:1013F0003091FB013A832983BC82AB829091FE013C
:101400009D831E828F83CE0101960E947A0687E01B
:10141000F801AAEFB1E001900D928A95E1F742CF71
:10142000909100029031A0F4488559856A857B85AA
:101430008C859D850E94E9068AEF91E00E947A06DC
:1014400087E0F40111928A95E9F70E94940863CF2E
:101450008115A1F02091FB0181812813BACF8091E1
:10146000FA018E11B6CFF110B4CF9683C8010E9455
:101470007A0687E0F40111928A95E9F7FF24F39444
:101480004BCF483C510508F041C08115B9F3F11428
:10149000C9F19091FB01818198132AC08091FA01D2
:1014A0008E1126C08091000280FD19C08031B8F0F5
:1014B0008683807F803F39F08681982F907F905F70
:1014C0008F70892B8683C8010E947A0687E0F80115
:1014D000AAEFB1E001900D928A95E1F7E5CE87E0A1
:1014E000F801AAEFB1E001900D928A95E1F7C6CF1D
:1014F000C8010E94DC0681118ACF809100028160C0
:1015000080930002C8010E947A06B8CF48855985A9
:101510006A857B858C859D850E94E90691CFAEE02A
:10152000B0E0E5E9FAE00C943924288739874A8746
:101530005B876C877D878E87CE0108960E94150990
:101540006C858115A9F0611541F0288539854A859A
:101550005B857D858E850E94F30617E08091C00132
:101560009091C10189133AC02E96E3E00C94552462
:1015700087E0FE013896DE01119601900D928A9562
:10158000E1F7611551F3A091C1018A2F90E0019616
:10159000877099272091C0012817190689F097E0D4
:1015A0009A9FD0011124AE53BE4FFE013196019097
:1015B0000D929A95E1F78093C1010E947208CDCFF8
:1015C0000E94B3061092C1011092C00187E0EAEFB9
:1015D000F1E0DF011D928A95E9F7BFCF189FC001A6
:1015E00011248E539E4F0E941509811509F4BCCF1A
:1015F000E091C0011E9FF0011124EE53FE4F2081A7
:101600003181428153816481758186810E94F30614
:101610008091C00190E00196877099278093C00166
:101620009DCF809129028695869586950895809113
:1016300029028770089590912902977081E0911195
:1016400001C080E00895809155020895909155025F
:10165000982B909355020895982F9095809155025C
:101660008923809355020895109255020895909110
:101670005402982B909354020895982F909580913E
:1016800054028923809354020895109254020895BD
:1016900008950E94480B089590912A02292F28232B
:1016A000211531F08095892380932A020E94490BED
:1016B000089508950E94590B089590912B02292FA7
:1016C0002823281729F0982B90932B020E945A0B5D
:1016D000089590912B02292F2823211531F0809510
:1016E000892380932B020E945A0B089580912B022C
:1016F000811529F010922B0280E00E945A0B089568
:10170000CF93C091550280915402C82B80912B0237
:10171000811531F0C82B0E94E11A81110E94760BCD
:101720008C2FCF910895CF93DF93C0910201D09178
:1017300003010E94800B8883C0910201D0910301B4
:1017400048E050E061E272E0CE010E94A424892BBF
:1017500059F088E0FE01A1E2B2E001900D928A9575
:10176000E1F7CE010E946C1ADF91CF910895CF93DB
:10177000DF93C0910001D09101010E94800B898309
:10178000C0910001D091010140E250E061E072E0BF
:10179000CE010E94A424892B59F080E2FE01A1E031
:1017A000B2E001900D928A95E1F7CE010E94771A7E
:1017B000DF91CF9108950E94521C813039F48091BD
:1017C000920287FF03C00E94B70B08950E94930BFB
:1017D000089508950E94E90B0895962F2091930291
:1017E00022FF11C0682F660F660F660F692B60938A
:1017F00029020E9445078091290286958695869543
:101800000E94EA0B08950E9445070895109229024C
:1018100080E00E94EA0B0895909129028095892327
:1018200080932902282F277021110DC0891759F0A4
:101830009091930292FF07C08695869586950E94A7
:1018400055070E94060C08959091930292FB22275F
:1018500020F9281769F080FB92F990939302809108
:101860009202909193020E94720C82E00E940C0CF2
:10187000089580919302002482FF0394802D0E949A
:10188000240C089581E00E94240C089580E00E94B9
:10189000240C08956FEF7FEF80E090E00E94FC241D
:1018A000089580E090E00E94C8249C0181E0253EDC
:1018B0003E4F09F080E0089582E090E00E94BA2453
:1018C000089583E090E00E94BA2490E00895682F84
:1018D00083E090E00E94DE24089584E090E00E947E
:1018E000C8240895BC0184E090E00E94FC2408957F
:1018F000AB01BC018FE090E00E94F0240895AB01A1
:10190000BC0183E190E00E94F024089560E070E063
:10191000CB010E947F0C089560E070E0CB010E9433
:10192000780C0E94860C0895A8E0B0E0EAE9FCE09B
:101930000C943A2465EE7EEF80E090E00E94FC2457
:1019400060E082E090E00E94DE2481E090E09093ED
:10195000BF018093BE010E94670C60E074E184E0E7
:1019600090E00E94FC2460E086E090E00E94DE248B
:1019700060E087E090E00E94DE2440E050E0BA01A1
:1019800088E090E00E94F02460E083E290E00E9412
:10199000DE2460E08CE090E00E94DE2460E08DE0D8
:1019A00090E00E94DE2419821A821B821C821D8212
:1019B0001E821F82188648E050E067E170E0CE0189
:1019C00001960E94CE2440E050E0BA018FE190E001
:1019D0000E94F0240E948C0C2896E2E00C9456247D
:1019E0000E94940C0895682F8EE090E00E94DE24FF
:1019F0000895A6E0B0E0EFEFFCE00C9438240E94DC
:101A0000041D8C0180915602909157028017910716
:101A100079F019821A820E94041DBC0149815A8101
:101A200080E090E00E947A031093570200935602E0
:101A30002696E4E00C9454240E94101D60936102E9
:101A400070936202809363029093640260935D02DC
:101A500070935E0280935F029093600208950895F0
:101A600008950E942F0D089508950E94340D0E943C
:101A7000310D089508950E943A0D089508950E9429
:101A80003E0D0E943B0D08958AE090E10E94721184
:101A90000E94300D0E94350D089581E0089581E087
:101AA00008950E944D0D08950895089508950E9487
:101AB000540D0E94550D0E94560D08950E94510C20
:101AC000811102C00E94F00C0E945C0C80936502A0
:101AD0000E946D0C90939302809392020E943F1695
:101AE0000E94610C0E9409078091BC019091BD0188
:101AF0000E942A0708950E94FB1C0E94C7100E94A2
:101B00005E0D0E9454030E943B150E943F0D0895F4
:101B1000A6E0B0E0EEE8FDE00C9431240E944F0D09
:101B200081110CC00E94F90C0E94D2150E94D2189B
:101B30000E9461032696EBE00C944D240E94DD1078
:101B400088E5A82E82E0B82E750110E0F70101911A
:101B50007F01812F0E9426101F5F153009F442C0BB
:101B60000817A1F38091650281FD0E942C100E944C
:101B7000510DC82E00E099249394802F0E942610C6
:101B8000182FF50191915F01891731F1D82ED926CF
:101B9000F12CEE24E3948D2D8E218115B1F0C1142A
:101BA000A1F0F9820A830E94041D9C838B839D828D
:101BB00091E0812F8E21811101C090E049815A81ED
:101BC0006B817C818D810E947A03F394EE0CF4E0AA
:101BD000FF12E1CFF50112930F5F053071F60E94FD
:101BE0001C0DA2CF0813BECF9DCF1F93CF93DF93C1
:101BF0000E941A0FEC01811522E5920708F05DC0E2
:101C0000811540E5940708F0DBC0803E910528F57A
:101C10008D3C910508F0ACC0883A910578F4853A7E
:101C2000910508F0A2C08130910509F441C00497E4
:101C3000813A9105E8F1C0E0D0E03AC0885A9109B4
:101C40004B97C8F7C85AD0E0CC0FDD1FCA5ADE4FF9
:101C50000990D881C02DD4642BC0811550E495071C
:101C6000F8F4C11580E2D80708F0C0C0C83ED1051D
:101C7000F8F0CE019A9581159F41E8F68D2F0E94CC
:101C8000BB0F182FCE0199270E941A0F212F30E089
:101C9000322F2227E901CC27DF71C82BD92B08C0AE
:101CA00099270E941A0FCC27DF70C82BD92BD06A36
:101CB000CE01DF91CF911F910895803842E59407BE
:101CC000C8F5803652E5950708F05BC0C03482E560
:101CD000D807D0F4C03292E5D90708F04BC08C2F5A
:101CE0008695869520E2829FC0011124C37021E071
:101CF00030E0A90102C0440F551FCA95E2F7EA017E
:101D0000C82BD92BDD68D4CF8C2F8695869587700C
:101D100050E2859FC0011124C37021E030E0A90189
:101D200002C0440F551FCA95E2F7EA01C82BD92B10
:101D3000DC68BECF803C52E5950758F48F71C03AFD
:101D4000D245A0F590E0982F8827EC01C46FD06AA7
:101D5000AFCF805C9245809708F06DCFDC2FCC2709
:101D6000CC27DF71C06FD06AA3CFA497D064A0CF77
:101D7000D0659ECFCF71D0E0DC2FCC27C16FD06A69
:101D800097CF86958695877020E2829FC0011124A7
:101D9000C37021E030E0A90102C0440F551FCA956D
:101DA000E2F7EA01C82BD92BDA6882CF0E94BB0F79
:101DB000C82FD0E0DC2FCC27CC27DF71D06278CFC2
:101DC0008F710E94BB0F53E0CC0FDD1F5A95E1F7D6
:101DD000CC27DF70282F30E084FF04C050E1859FBE
:101DE00090011124C22BD32BD06962CF8D2F8F711C
:101DF0000E94BB0F182FCE0199270E941A0F212F86
:101E000030E0322F222722273F71282B392BE9017E
:101E1000D5CF462F672F753028F4443018F40E9430
:101E2000FC01089580E090E008950E94090F0E944F
:101E3000F50D08959C01803E910509F448C0D8F441
:101E40008133910509F47DC048F48932910509F484
:101E50006DC08A9709F47CC0C90108958933910542
:101E600051F18238910539F1C597B1F7809192020D
:101E700085FFF2CF29C0843E910509F447C048F49C
:101E8000823E910599F1833E9105A9F121EE30E062
:101E9000E3CF863E910509F444C0873E9105E1F603
:101EA0008091920283FD61C09091930291FF2BC0BB
:101EB00024EE30E0D1CF809192028370811152C024
:101EC0008091930283FFC8CF29E230E0C5CF809193
:101ED000920280FD33C09091930290FFBDCF23EE1C
:101EE00030E084FFB9CF20E030E0B6CF809192029D
:101EF00082FDF5CFB1CF8091920282FD30C09091EA
:101F0000930290FD2FC084FFA7CFEDCF8091930265
:101F100081FFA2CF8091920227EE30E084FDE3CFD3
:101F20009BCF8091920283FDF7CF96CF8091920252
:101F300085FD1EC08091930283FF8ECF29E330E0A0
:101F40008BCF8091920286FF87CF2AE230E084CF48
:101F50008091920286FF80CF21E330E07DCF22EE98
:101F600030E07ACF20EE30E077CF26EE30E074CF4D
:101F700025E330E071CF9091920292FF10C041E0D2
:101F8000282F2471243009F040E031E0282F2871F7
:101F9000283009F030E0431711F02CE0822793FF3E
:101FA00010C041E0282F2471243109F040E031E0D5
:101FB000282F2871283109F030E0431711F02CE068
:101FC00082273091930230FF10C051E0282F2171F9
:101FD000213009F050E041E0282F2871283009F025
:101FE00040E0541711F029E0822731FF10C041E092
:101FF000282F2171213109F040E031E0282F28718C
:10200000283109F030E0431711F029E0822794FDD0
:10201000877E089580E00895CF939C01FB01805E48
:102020009245C1E0809738F4C581C11104C0822F68
:102030008F710E948C028C2FCF91089508950E9479
:102040001E10089508950E9422100895E82FF0E0D0
:10205000E756FD4F80810895089580EA8A95F1F74B
:10206000089500C008950E942D100895F894E82F57
:10207000E295EF70F0E041A18F7021E030E0B9010E
:1020800002C0660F771F8A95E2F7CB01962F9095D5
:10209000942391A392A1892B82A378940895CF933E
:1020A000DF93C0E9D1E089918F3F11F00E94361093
:1020B00081E0C539D807B9F787E60E94361086E671
:1020C0000E94361086E30E94361085E30E94361087
:1020D000DF91CF910895A0E0B0E0E1E7F0E10C944A
:1020E0003424EC01D62E062F10E0C80180579E4FF5
:1020F0007C01FC0180818F3F09F444C0F894E82FF3
:10210000E295EF70F0E091A18F7021E030E001C026
:10211000220F8A95EAF7892F822B81A382A120952D
:10212000282322A378940E943110ACE8B1E091E01A
:10213000C12C8D918F3F79F0E82FE295EF70E05E32
:10214000F0E0208130E08F7002C0359527958A95A8
:10215000E2F7892F20FD80E0C82A990FF1E0A0392D
:10216000BF0739F7F70180818F3F11F00E943610C9
:1021700061E0C11001C060E08D2D0E943310C00FDE
:10218000D11FC882CDB7DEB7E8E00C9450240E947E
:102190004F1085E0E9E9F2E0DF01982F1D929A9552
:1021A000E9F7E4E9F2E0DF011D928A95E9F785E0BD
:1021B0000E941A110E941F100895A5E0B0E0E3EEFE
:1021C000F0E10C943724FE01319685E0DF011D9289
:1021D0008A95E9F710E0FE2E0F2F612F8F2D902F9B
:1021E0000E946B101F5F1530C1F745E050E06F2D66
:1021F000702F84E992E00E94A42421E0892B81F4CD
:1022000020E045E069E972E084E992E00E941B1158
:10221000182F0E942310812F2596E5E00C9453245B
:1022200085E0EF2DF02FA4E9B2E001900D928A95A0
:10223000E1F7E7CF0895A0E0B0E0E1E2F1E10C942E
:102240003424D82EE92EF62ED72F042FC22F211595
:1022500079F081E0809368020E94041D90936702E8
:102260008093660280E0CDB7DEB7E8E00C9450249E
:10227000C0906802C114B1F3809166029091670228
:102280000E94931C059770F310E0A8016D2D7E2D20
:102290008F2D9D2F0E94A424892B41F0A8016D2D24
:1022A0007E2D8F2D9D2F0E94B124CC2D109268027F
:1022B0008C2FD9CF0E94880D08950E949D1C0E94EA
:1022C000B91E0E94440D0E94D31E0E947B0D0E94E5
:1022D000E01E0E94E51E0E945A110E94FF1E0E94ED
:1022E000570DF7CF9093A9018093A8010895CF933C
:1022F000DF93EC01FB018581811104C081E0DF9156
:10230000CF9108950E94230B8272FE01E052F8479C
:10231000EB30F10598F7E05EFA4D0C9424240E940E
:102320002D1580E0ECCF811529F00E941B15F9CF07
:102330008115D9F30E940C15F4CF811529F00E9464
:102340001014EFCF8115D9F30E940214EACF811542
:1023500029F00E943214E5CF8115D9F30E9421148F
:10236000E0CF811529F00E945414DBCF8115D9F3F9
:102370000E944314D6CF811529F00E943A13D1CF81
:102380008115D9F30E941A13CCCFCF92DF92EF922E
:10239000FF921F93CF93DF93172FE82F711111C076
:1023A000411521F0F0E0E652FF4FE4916E2F7E2FB1
:1023B0008E2FDF91CF911F91FF90EF90DF90CF9004
:1023C0000895C62ED12CE72EF12C411521F0F0E016
:1023D000E652FF4FE49186E0689F90011124CFEF11
:1023E000D0E0C901BE010E94FC23AB01C601880FE9
:1023F000991FF5E5F49FB001F59F700D1124861B20
:10240000970B682F660F680F6E01CE18DF08EC9DE2
:10241000D001ED9DB00D11249B2F169F600111245A
:10242000CD2CDD247E01EC18FD086701EC9D7001C8
:10243000ED9DF00C11246E01C61AD108B601169F4D
:102440006001179FD00C1124CD2CDD24CC19DD099F
:10245000EC9F6001ED9FD00C11247D2D4330510580
:10246000C1F02C3F334050F441305105B1F04230BF
:10247000510561F47E2FEB2F9D2D08C0443051058E
:1024800079F04630510511F07B2F9F2D6E2FE92FEB
:102490008FCF7F2D9E2FEB2FF9CF7E2FEF2DF6CFF5
:1024A0009E2FED2D7B2FF2CF41E00E94C5110895A4
:1024B00008950E945412089590910401291B922FAF
:1024C000E091A201F091A301242F462F682F892FBC
:1024D00090E009950895CF93DF93982F762F842F5E
:1024E000D22FC32F692F0E945912962F672F482F82
:1024F0002D2F3C2F892F0E945C12DF91CF910895E0
:1025000080919E02843028F48370846080939E02C0
:1025100008958C32E8F383708862F8CF4F925F920F
:102520006F927F928F929F92AF92BF92CF92DF92E3
:10253000EF92FF920F9388E090E00E94C2246B011B
:102540007C0183E290E00E94BA24282F30E040E032
:1025500050E060E070E080E090E000E20E946124E2
:10256000260137012C293529462957290F91FF903B
:10257000EF90DF90CF90BF90AF909F908F907F9023
:102580006F905F904F900895A0E0B0E0EAECF2E128
:102590000C9434248901D42FC52F6B017C010E9437
:1025A0008012A8016D2F7C2F88E090E00E94F0241B
:1025B00098014D2F5C2FB601C70100E20E947C24D8
:1025C000622F83E290E00E94DE24CDB7DEB7E8E020
:1025D0000C945024EEE9F2E085E1808311828FEFC4
:1025E000828383831482758125E130E04FEF5FEFB2
:1025F00060E0868197810E94C41208959091A202A2
:10260000933018F49F5F9093A202811591F020916E
:102610009E0230919F024091A0025091A1026091D0
:10262000A2027091A3028091A4029091A5020E943F
:10263000C412089581E00E94FE1208959091A202B2
:10264000911519F091509093A202811591F020916B
:102650009E0230919F024091A0025091A102609190
:10266000A2027091A3028091A4029091A5020E94FF
:10267000C412089581E00E941E1308950F931F93C2
:10268000CF9380919E0280FF09C0E091A601F09156
:10269000A7010995CF911F910F910895C09106014F
:1026A0000091A2011091A30180910701C81768F75A
:1026B000809104019C2F981B892F20E040E060E06E
:1026C00090E0F8010995CF5FEFCFEF92FF920F9363
:1026D0001F93CF93DF93D82F162F042F80919E0244
:1026E00080FF0CC0C0910601E090A201F090A30110
:1026F00080910701C81738F00E943E13CDB7DEB7AE
:10270000E6E00C945224809104019C2F981B892FA1
:10271000202F412F6D2F90E0F7010995CF5FE8CF73
:10272000982F762F842F20919E0220FF09C0692FB9
:102730000E945412962F672F482F892F0E946513ED
:102740000895CF93DF93EC01EEE9F2E043816281DB
:102750008C810E9490138C818F5F8C83DF91CF914D
:1027600008950F931F93CF93DF93C82F162FD42F65
:10277000022F80919E0280FF2EC0E82FE695E695FD
:10278000F0E0EB56FE4F9081909370028C7F843086
:1027900039F56C2F712F842F0E945412962F672FBA
:1027A000482F892F0E946513C0939F021093A002A7
:1027B000D093A102011579F020919E026091A202AE
:1027C0007091A3023C2F412F5D2F8091A402909124
:1027D000A5020E94C412DF91CF911F910F9108951D
:1027E000923019F4C0919F02DFCF9530E9F6FACF0D
:1027F000282FEEE9F2E0818143816281885F0E94A7
:10280000B113089581E00E94F8130895282FEEE98E
:10281000F2E081814381628188500E94B113089562
:1028200081E00E9406140895282FEEE9F2E062810B
:1028300031E1630F08F46FEF438181810E94B1138E
:10284000089581E00E9414140895282FEEE9F2E023
:10285000628131E1631B08F460E0438181810E9461
:10286000B113089581E00E9425140895282FEEE900
:10287000F2E0438131E1430F08F44FEF628181813F
:102880000E94B113089581E00E9436140895282F04
:10289000EEE9F2E0438131E1431B08F440E062815C
:1028A00081810E94B113089581E00E944714089528
:1028B00020E00E94B1130895EF92FF921F93CF93EF
:1028C000DF93EC0110E0EE24EA94F12C6091080112
:1028D000161770F00E943E138C819A8190FF1EC0E3
:1028E0008F5F8C83DF91CF911F91FF90EF900895C0
:1028F00020910601210F3327331F70E0C7010E948A
:102900001024962F8C814091A1026091A002199F02
:10291000800D11240E946B121F5FD8CF8150E1CF30
:10292000EEE9F2E020812E7F2083318142815381C4
:1029300064817581868197810E94C4121092710210
:102940000E943E13089560919E026695669570E020
:1029500041E050E089E091E00E949724892B19F42E
:1029600081E0809371020E94041D90936A0280931B
:102970006902089590919E0290FF3AC08115C9F1B5
:102980008B30C8F58F73282F220F220F80919E0263
:102990008370282B20939E02611581F030919F0255
:1029A0004091A0025091A1026091A2027091A302F5
:1029B0008091A4029091A5020E94C41260919E028F
:1029C0006695669570E041E050E089E091E00E94F4
:1029D0009724892B91F01092710281E080936C0210
:1029E0004091A1026091A00280919F020E94581420
:1029F000089581E0C8CF8AE0C6CF0E94A314EDCF2E
:102A0000682F80919E02869586958F5F8B3008F0A7
:102A100081E00E94BA14089581E00E940015089593
:102A2000682F80919E02869586958A9509F48AE0A2
:102A30000E94BA14089581E00E941015089561E083
:102A40000E94BA140895EEE9F2E0808181608083EB
:102A5000869586950E941F15089580919E0280FF9D
:102A600003C00E94901408950E942315089560E009
:102A70000E94BA14089580916F0281113CC00E9497
:102A80008E1220939E0230939F024093A002509397
:102A9000A1026093A2027093A3028093A402909378
:102AA000A5022430A0F40E94EA120E948E12209304
:102AB0009E0230939F024093A0025093A102609324
:102AC000A2027093A3028093A4029093A5020E9495
:102AD000801210927102E091A001F091A10109957C
:102AE00080919E0280FF04C0869586950E943715CE
:102AF00081E080936F0208950F931F93CF93DF932C
:102B0000809171028115C1F180917002E0919E0265
:102B1000E695E695E81BE0936B02823091F5F0E0D4
:102B2000E952FF4FE491CE2FD0E001EA13E180910A
:102B30006C02811561F010926C020E94041D90934A
:102B40006A028093690210926E0210926D020E94D6
:102B5000041D2091690230916A02821B930B8F3F02
:102B60009F4750F42C0F3D1F30936A022093690257
:102B700089E692E0F8010995DF91CF911F910F91BD
:102B80000895C0EDD7E008E512E1853081F6E695BD
:102B9000F0E0EC52FF4FE491CE2FD0E00CE514E1D1
:102BA000C6CF08950E947C150895879A0895FC0168
:102BB000EE0FFF1FE80FF91FEA55FD4F61834083B9
:102BC00022830895FF920F931F93CF93DF93182FC3
:102BD000062FF42EC0E0D0E02F2D402F612FCE0124
:102BE0000E94D7152196C630D105B1F7CDB7DEB713
:102BF000E5E00C94532431B33F7721B320684FB7FD
:102C0000F89486EA92E0FC010196508168E021BBCD
:102C1000000000C057FF31BB550F000000C000C0CE
:102C200000C031BB00C06A9591F752E0883B950720
:102C300051F74FBF8FE594E00197F1F700C0000016
:102C400008950E944A0C089580E00E942610817029
:102C500008950E94DD102FEF86E791E0215080401B
:102C60009040E1F700C000000E94DD100E94241691
:102C7000811521F00E9421160E94401D08950E9496
:102C800029160895CF93DF93EB0186319C4719F500
:102C90000E94230B9D819115A1F08A7A91E0811108
:102CA00001C090E090937202811549F085E30E9483
:102CB000921B0E94DB0B80E0DF91CF91089589E2A7
:102CC000F6CF80917202811521F085E30E94AC1B42
:102CD000F0CF89E2FBCF81E0EFCFCF93DF93EC0120
:102CE000FB018581811509F4CFC09E013057233245
:102CF000310508F0AFC00E946D0C90939302809351
:102D00009202FE01E150F047E232F10520F4E55D68
:102D1000FA4D0C9424248091920281608093920257
:102D200090C0809193028860809393028AC08091C2
:102D300092028260F3CF809192028460EFCF809103
:102D400092028860EBCF809193028160EDCF8091F9
:102D500093028260E9CF809192028061DFCF8091FF
:102D600092028062DBCF809192028064D7CF0E9472
:102D7000B306809192028068D1CF809192028C60DC
:102D8000CDCF809193028360CFCF809192028E7FCE
:102D9000C5CF80919302877FC7CF809192028D7FAC
:102DA000BDCF809192028B7FB9CF80919202877FB5
:102DB000B5CF809193028E7FB7CF809193028D7FA4
:102DC000B3CF809192028F7EA9CF809192028F7DA6
:102DD000A5CF809192028F7BA1CF0E94B3068091F4
:102DE00092028F779BCF80919202837F97CF8091C1
:102DF00093028C7F99CF80919202992782FF9395BD
:102E000090FB82F990FB83F989CF80919302982FF0
:102E1000909590FB80F990FB81F986CF909192027A
:102E2000892F8F7B96FF806479CF0E94B3069091A3
:102E30009202892F97FB87F9805870CF81E00E941A
:102E4000F30C80919202909193020E94720C0E9466
:102E5000B30680E0DF91CF91089580E0F0CF9091AC
:102E60009202892F8F7E94FF806158CF90919202B9
:102E7000892F8E7F90FF816051CF90919302892F8F
:102E8000877F93FF886050CF81E0E4CF282F35EB18
:102E90002303C001112497FF04C080589109892F92
:102EA000089580589F4FFBCF8091790280FF0DC01D
:102EB00060910F0170E0660F771F60387105B0F503
:102EC00061157105A9F1862F089581FF07C06091F2
:102ED0000F0184E0689FB0011124EFCF82FF04C08E
:102EE00060910F0188E0F6CF909178029115D9F0AA
:102EF00020910E0180910F01682F70E0921730F041
:102F000043E0660F771F4A95E1F7D7CF899FC0014D
:102F1000112433E0880F991F3A95E1F7622F70E092
:102F20000E941024CACF68E070E0CDCF8FE70895EB
:102F300081E008958091790280FF0CC060910B01BF
:102F400070E075956795759567956115710549F1FF
:102F5000862F089581FF06C060910B0170E0759582
:102F60006795F3CF60910B0182FD0BC090917702C2
:102F70009115A1F060910A0180910B01961738F02C
:102F8000682F70E06038710500F38FE70895899F1E
:102F9000C001112470E00E941024F4CF61E070E0C1
:102FA000D7CF81E00895E3E3E80FE331E0F5F0E007
:102FB000E35BFA4D0C9424240E945417819580936E
:102FC0007D0208950E945417FACF0E9454178195EC
:102FD00080937C0208950E945417FACF0E949A179A
:102FE00080937E0208950E949A178195F9CF0E94DE
:102FF0009A17819580937F0208950E949A17FACFBD
:10300000815D990B21E030E001C0220F8A95EAF73B
:1030100080917B02822B80937B02089580917902BC
:103020008160809379020895809179028260F9CF5E
:10303000809179028460F5CF40917C028D3C59F4F7
:1030400080917D0287FF0DC010927D02411559F4D9
:103050001092780208C08E3C81F480917D0218168F
:103060009CF3411581F080917E0290917F02892B23
:10307000811159C01092770208958F3C41F447FFA7
:10308000F0CF10927C0280917D028115E0CF803DCF
:1030900019F41416B4F3E5CF90917E02893D29F41A
:1030A0001916FCF610927E02DCCF8A3D19F497FFC8
:1030B000D8CFF8CF90917F028B3D29F497FFD1CFE5
:1030C00010927F02CECF8C3D19F41916CCF3C9CFE4
:1030D0009FE2980F983090F4815D990B21E030E0E9
:1030E000B90102C0660F771F8A95E2F7CB01809580
:1030F00090917B02892380937B02B3CF8D3D31F485
:10310000809179028E7F80937902ABCF8E3D21F43E
:10311000809179028D7FF7CF8F3D09F0A2CF80910A
:1031200079028B7FF0CF08950E94041D20917C02CC
:1031300030917D02232B211521F08093750290930D
:10314000760220917E0230917F02232B211521F0FF
:1031500080937302909374028AE792E00E94861A29
:10316000089586E0EAE7F2E0DF011D928A95E9F72B
:103170001092780210927702109279020895FC0161
:10318000828181110DC0838181110AC084818111E6
:1031900007C081E09581911101C080E081700895A0
:1031A00081E0FCCFA6E0B0E0E8EDF8E10C94342437
:1031B00086E0EAE7F2E09E012F5F3F4FD9010190E0
:1031C0000D928A95E1F710927C0210927D02109286
:1031D0007E0210927F028B819C81892B790181155F
:1031E00089F080917502909176020E94931C6C0187
:1031F000809178028115B9F1909110019C151D0400
:1032000008F43EC08D819E81892B811591F08091BB
:103210007302909174020E94931C8C01809177023A
:10322000811509F45FC090910C019017110608F404
:1032300067C0B7018AE792E00E94E01B811105C0D8
:103240008AE792E00E94BF1881110E94941886E0DC
:10325000F701AAE7B2E001900D928A95E1F7269670
:10326000E8E00C945024209111019AE0299F9001EC
:1032700011242C153D0530F68F5F8093780202C033
:103280008F3FD1F7DB80D11459F00E94541791E0A1
:103290001D140CF09FEF899F802D112480937C02D8
:1032A000DC80D11459F00E94541791E01D140CF0E9
:1032B0009FEF899F802D112480937D0280917C0255
:1032C000811509F49FCFD0907D02D11409F49ACFD3
:1032D0000E94461780937C028D2D0E944617809392
:1032E0007D0290CF20910D019AE0299F9001112439
:1032F0002017310708F09DCF8F5F8093770202C0BF
:103300008F3FD1F71D81111559F00E949A1791E056
:1033100011160CF09FEF899F802D112480937E025F
:103320001E81111559F00E949A1791E011160CF0A8
:103330009FEF899F802D112480937F0280917E02D0
:10334000811509F476CF10917F02111509F471CF20
:103350000E94461780937E02812F0E944617809319
:103360007F0267CF0F931F93CF93DF93C42FD22F8A
:10337000FC0185818115C9F0409382020E94041DE1
:10338000909381028093800280E28C0F883040F419
:10339000C77081E001C0880FCA95EAF70E945B04FC
:1033A000DF91CF911F910F91089510918202141314
:1033B00033C080918002909181020E94931C883CCE
:1033C000910550F5C0E2CD0F1D17C1F080E2810FCD
:1033D000883040F4177081E001C0880F1A95EAF731
:1033E0000E946204C83050F491E08D2F877001C0B4
:1033F000990F8A95EAF7892F0E945B04802F0E941B
:103400005204C83068F6D77081E001C0880FDA95A1
:10341000EAF70E946204C4CF80E28C0F883008F083
:10342000BFCFC77081E001C0880FCA95EAF7F1CF1E
:103430000F93DB01FC01E851FC47E730F10598F5FB
:10344000E05AFA4D0C94242406E221EE41EE6AE1A2
:103450007CE7CD010E94B21980E00F91089507E248
:1034600025EE45EE6BE17CE7F4CF06E221EE40EE7F
:1034700068E17CE7EECF07E225EE44EE69E17CE708
:10348000E8CF06E221EE42EE6CE17CE7E2CF07E214
:1034900025EE46EE6DE17CE7DCCF08E221E045EE6B
:1034A0006EE17CE7D6CF15968C9181111092820245
:1034B00081E0D3CF90938802809387020895E091B2
:1034C0008702F0918802309729F00190F081E02D79
:1034D0000995089580E00895E0918702F0918802AF
:1034E000309721F00280F381E02D09950895DC01E9
:1034F000E0918702F0918802309739F086E08C9352
:103500000480F581E02DCD0109950895DC01E0915D
:103510008702F0918802309739F082E08C93068020
:10352000F781E02DCD0109950895A3E0B0E0EBE926
:10353000FAE10C943A249C018091850290918602D4
:1035400082179307A1F03093860220938502E091C1
:103550008702F0918802309751F083E089833B83A2
:103560002A830084F185E02DCE01019609952396EA
:10357000E2E00C945624A3E0B0E0E1ECFAE10C9414
:103580003A249C01809183029091840282179307D0
:10359000A1F03093840220938302E0918702F0919E
:1035A0008802309751F084E089833B832A8300842A
:1035B000F185E02DCE01019609952396E2E00C9469
:1035C0005624CF93DF93C0910201D091030122963C
:1035D0000E94521C813081F48091920287FF0CC0BE
:1035E000C0910001D091010122969EE180E09150AE
:1035F00028F4DF91CF91089596E0F8CF2991211515
:10360000B1F38F5FF4CFCF93C82F811102C080E058
:1036100031C00E94521C813021F48091920287FDBA
:103620000EC08091020190910301FC013296089630
:1036300021912C1709F1E817F907D1F7E8CF8C2F62
:10364000869586958695C03F10F7E0910001F09130
:103650000101E80FF11D228130E0C77081E090E0A8
:1036600002C0880F991FCA95E2F72823392381E009
:10367000232B69F2CF91089581E0FCCF9C01FC01DE
:1036800032968FEF90E04191461751F08F3F19F439
:10369000411101C0892F9F5F9630A9F78F3F09F430
:1036A0000895280F311D87FD3A95F9016283089529
:1036B0009C01FC013296285F3F4F8191861302C026
:1036C000DF011E92E217F307C1F70895FC01862F70
:1036D000869586958695603F60F4E80FF11D6770CA
:1036E00021E030E001C0220F6A95EAF78281822B47
:1036F00082830895FC01862F869586958695603F86
:1037000080F4E80FF11D677081E090E09C0102C039
:10371000220F331F6A95E2F7B90160958281682311
:1037200062830895CF93C82F0E94521C6C2F813062
:1037300061F48091920287FF08C08091000190910E
:1037400001010E94661BCF91089580910201909122
:1037500003010E943E1BF7CFCF93C82F0E94521C3B
:103760006C2F813061F48091920287FF08C08091B4
:103770000001909101010E947A1BCF9108958091E0
:103780000201909103010E94581BF7CF0E94521C26
:10379000813079F48091920287FF0BC0E0910001A3
:1037A000F091010132968EE1DF011D928A95E9F7D1
:1037B0000895E0910201F0910301329686E0F4CF82
:1037C000DC01FB0111969C9111978181981322C015
:1037D00012968C911297811519F0928189131AC053
:1037E00013968C911397811519F09381891312C048
:1037F00015968C911597811519F0958189130AC03A
:1038000014969C91911521F081E02481291303C025
:1038100080E001C081E08170089508950E940D1C30
:1038200008958F5F809315016091120170911301CB
:1038300080911401909115010E940E1C089583E05F
:103840008093150160911201709113018091140110
:10385000909115010E940E1C08950E94111C08955C
:1038600081E08093150160911201709113018091A4
:103870001401909115010E940E1C08950E94301CA5
:10388000089591E0811101C090E09093140160913E
:1038900012017091130180911401909115010E9401
:1038A0000E1C089580911401089580931301609176
:1038B00012017091130180911401909115010E94E1
:1038C0000E1C089580911301089580931201609158
:1038D00012017091130180911401909115010E94C1
:1038E0000E1C0895809112010895089508950E9474
:1038F000761C0895089508950E94751C0895CF932D
:103900000E947A1C0E94DD100E947B1CC0E08C2F5C
:103910000E942610811105C0CF5FC530C1F7CF913D
:10392000089581E0FCCFCF93DF93EC010E94041D4A
:103930008C1B9D0BDF91CF91089585B7806885BF63
:1039400085B7806885BF08951F921FB61F92112406
:103950008F939F93AF93BF9380918902811113C07E
:103960008091B8029091B902A091BA02B091BB02C5
:103970004196A11DB11D8093B8029093B902A09306
:10398000BA02B093BB02BF91AF919F918F911F90EC
:103990001FBE1F9018958091C002843031F10E94A3
:1039A00034031092890288E190E020E40FB6F89485
:1039B000A895809360000FBE2093600083B7817F3D
:1039C000846083BF83B7816083BF7894889583B711
:1039D0008E7F83BF0FB6F894A895809160008861B0
:1039E00080936000109260000FBE08950E94B3069D
:1039F0000E943B03089582E084BD93E095BD9AEF59
:103A000097BD80936E0008952FB7F8948091B80207
:103A10009091B902A091BA02B091BB022FBF089554
:103A20002FB7F8946091B8027091B9028091BA02F0
:103A30009091BB022FBF089578941F921FB61F92DA
:103A400011248F939F93AF93BF938091B80290916D
:103A5000B902A091BA02B091BB020196A11DB11D9D
:103A60008093B8029093B902A093BA02B093BB02BC
:103A7000BF91AF919F918F911F901FBE1F9018957E
:103A800081E08093E00080E28093D8001092C9002A
:103A90008FE19EE40197F1F700C0000087E090EB12
:103AA000DC018093C9029093CA02A093CB02B09329
:103AB000CC0288E19CE00FB6F894A8958093600052
:103AC0000FBE90936000FFCF88E19CE00FB6F894A2
:103AD000A895809360000FBE90936000FFCF282FC1
:103AE000CB01BA013091C0023430D9F42F70209349
:103AF000E9002FEF3091E80035FD06C035ED3A952D
:103B0000F1F700002A95B1F72091E80025FF09C0E0
:103B100040E050E00E94761F8091E8008E7780930D
:103B2000E8000895BC0143E050E082E00E946F1D70
:103B30000895BC0146E050E082E00E946F1D0895A8
:103B4000BC0140E250E082E00E946F1D0895CF93D7
:103B5000DF93D82FC92F0E94521C48E050E06D2FF0
:103B60007C2F81E00E946F1D88E0ED2FFC2FAAE8DA
:103B7000B2E001900D928A95E1F7DF91CF9108951F
:103B80008091BF02811109C00E94FF200E945C2128
:103B90008091E20084608093E20008951092BF0259
:103BA00008950E94301C81E00E94411C089560919C
:103BB000BC0281E0611101C080E00E941F1C0895D9
:103BC0009091C00281E0943009F080E06091BC02E5
:103BD0000E942D1C089542E061EC81E00E947B2050
:103BE00042E261EC82E00E947B209091C00281E081
:103BF000943009F080E06091BC020E94111C08958D
:103C00008091C202893089F148F4823009F4A0C061
:103C1000833009F45AC0813041F008958A3009F4A4
:103C200087C08B3009F46CC008958091C102813A3D
:103C300009F04AC08091E800877F8093E800809176
:103C4000C5029091C602892B61F060E080E090E0AF
:103C500070E00E94C61F8091E8008B778093E80097
:103C6000089568E08AE892E0F3CF8091C102813242
:103C700059F58091C5029091C602029728F580916E
:103C8000E800877F8093E8008091E80082FF18C0F9
:103C90009091F3008091F200029731F48091F1004D
:103CA000813011F0863021F48091F1000E94551C82
:103CB0008091E8008B778093E8000E94AF20089500
:103CC0008091C0028111E0CF08958091C102813AB4
:103CD000D9F78091C5029091C602892BA9F78091EE
:103CE000E800877F8093E8008091E80080FFFCCFA8
:103CF0000E94521C8093F1008091E8008E77DBCF08
:103D00008091C102813201F78091C5029091C60273
:103D1000892BD1F68091E800877F8093E8000E948C
:103D2000AF208091C3020E94411C0E94B3060895F7
:103D30008091C102813241F68091E800877F8093B3
:103D4000E8000E94AF208091C4020E94651C089583
:103D50008091C102813A09F0B7CF8091E800877F56
:103D60008093E8008091E80080FFFCCF0E94721CE5
:103D7000C1CF84B7877F84BF0FB6F894A895809190
:103D80006000886180936000109260000FBE80E840
:103D900090E00FB6F89480936100909361000FBE9D
:103DA0000E943E1C08950E94FF200E945C21E2EECA
:103DB000F0E080818460808378940E94E2230895FB
:103DC00086E191E00E945A1A08958091C0028530E0
:103DD00031F48091C002853019F00E94F61C0895DC
:103DE0000E94CB1C0E947F1C811599F38091BE021A
:103DF000811579F30E94601F0E94B306EACF0895EF
:103E00009A014091C7025091C8020E94081F08956C
:103E1000FC01D9018F2F992783309105C1F068F4F7
:103E20008130910509F447C0029761F48BE390E07B
:103E300020E132E02D933C93089581329105E1F029
:103E4000829749F180E090E020E030E0F3CFCF01AD
:103E50009927E13059F08230910559F0ECE0F2E019
:103E6000892B81F7849190E09F01E4CFE8EFF1E0A6
:103E7000F9CFEAEDF1E0F6CF89E090E022E232E01E
:103E800061157105B9F289E090E02BE332E0613011
:103E9000710581F2D7CF84E490E023E133E061152E
:103EA000710541F286EB90E02DE532E0613071055D
:103EB00009F4C0CFC7CF82E190E02BE432E0BACF63
:103EC00080E189BD82E189BD09B400FEFDCF80910A
:103ED000D8008F7D8093D8008091E000826080932D
:103EE000E0008091E00081FDFCCF0895AF92BF9289
:103EF000CF92DF92EF92FF920F931F93CF936C01BB
:103F00008B017A010E94CE20C82F811123C0E114B9
:103F1000F10439F0F70180819181081B190BC80E5B
:103F2000D91EA12CB12C01151105A1F08091E8003A
:103F300085FD21C08091E8008E778093E800E11430
:103F4000F10499F0F701808191818A0D9B1D918385
:103F50008083C5E08C2FCF911F910F91FF90EF9040
:103F6000DF90CF90BF90AF9008950E94CE20811532
:103F7000E9F2C82FEFCFF60181916F018093F10034
:103F800001501109FFEFAF1ABF0ACDCFFC019B0111
:103F90008091C7029091C8028617970718F0672B87
:103FA00061F0C90140E0009771F441110CC08091AB
:103FB000E80082FF35C080E008958091E8008E77A8
:103FC0008093E800EECF2091C0022115A9F12530A1
:103FD000A9F12091E80023FD2DC02091E80022FDE9
:103FE000E6CF2091E80020FFDECF3091F300209152
:103FF000F200009719F02830310558F041E02830E0
:10400000310509F040E02091E8002E772093E80088
:10401000CACF41914093F10001972F5F3F4FE9CF05
:104020008091C002811541F0853041F08091E80017
:1040300083FFBDCF81E0089582E0089583E0089575
:10404000FC019B018091C7029091C80286179707D7
:1040500018F0672B61F0C90140E0009771F441113D
:104060000CC08091E80082FF36C080E00895809106
:10407000E8008E778093E800EECF2091C0022115F2
:10408000B1F12530B1F12091E80023FD2EC020913F
:10409000E80022FDE6CF2091E80020FFDECF30913E
:1040A000F3002091F200009719F02830310558F004
:1040B00041E02830310509F040E02091E8002E77FA
:1040C0002093E800CACF44914093F10031960197C4
:1040D0002F5F3F4FE8CF8091C002811541F08530BE
:1040E00041F08091E80083FFBCCF81E0089582E039
:1040F000089583E00895982F973028F08F7080936B
:10410000E90081E008959093E900242F762F50E094
:10411000981731F07091EC002091ED005091F00073
:1041200021FD02C09F5FE8CF3091EB003E7F3093CE
:10413000EB003091ED003D7F3093ED003091EB00CE
:1041400031603093EB007093EC002093ED005093BE
:10415000F0002091EE0027FDE5CF80E008958091EA
:10416000C10287FF13C08091E80082FF06C08091E2
:10417000E8008B778093E80008958091C002811158
:10418000F2CF08958091C0028115D9F38091E800A3
:1041900080FFF8CF8091E8008E77ECCF2091E4008B
:1041A0003091E50095E6A9012091EC00822F817005
:1041B00020FF06C08091E80080FF06C080E00895DF
:1041C0002091E80022FD1AC08091C002811589F07B
:1041D000853089F08091EB0085FD0FC02091E400CF
:1041E0003091E50042175307F9F29A95E1F684E021
:1041F000089582E0089583E0089581E008950E9483
:104200006E210E947621E0EEF0E080818160808363
:10421000E8EDF0E080818F77808319BCA7EDB0E0F6
:104220008C918E7F8C9380818F7E80831092BF02D1
:1042300008950F931F93CF93DF930E946E210E94E6
:104240007621C8EDD0E088818F7788838881806867
:10425000888388818F7D888319BC1092C002109258
:10426000BC021092BE021092BD0200EE10E0F801F6
:1042700080818B7F808388818160888342E060E0D9
:1042800080E00E947B20E1EEF0E080818E7F8083E1
:10429000E2EEF0E0808181608083808188608083AD
:1042A000F80180818E7F8083888180618883DF919F
:1042B000CF911F910F910895E8EDF0E080818F7EFE
:1042C0008083E7EDF0E080818160808384E082BFBD
:1042D00081E08093BF020E9419210895E8EDF0E08B
:1042E00080818E7F80831092E20008951092DA0020
:1042F0001092E10008951F920F920FB60F921124B1
:104300002F933F934F935F936F937F938F939F93DD
:10431000AF93BF93EF93FF938091E10082FF0BC0B7
:104320008091E20082FF07C08091E1008B7F809343
:10433000E1000E94E1238091DA0080FF19C08091A2
:10434000D80080FF15C08091DA008E7F8093DA005C
:104350008091D90080FF94C080E189BD82E189BD50
:1043600009B400FEFDCF81E08093C0020E94C01D11
:104370008091E10080FF19C08091E20080FF15C0AC
:104380008091E2008E7F8093E2008091E200806164
:104390008093E2008091D80080628093D80019BC9D
:1043A00085E08093C0020E94D71D8091E10084FFC8
:1043B00029C08091E20084FF25C080E189BD82E1AF
:1043C00089BD09B400FEFDCF8091D8008F7D809318
:1043D000D8008091E1008F7E8093E1008091E2001F
:1043E0008F7E8093E2008091E20081608093E20002
:1043F0008091BC02811509F449C084E08093C00219
:104400000E94E01D8091E10083FF29C08091E200BD
:1044100083FF25C08091E100877F8093E10082E0E7
:104420008093C0021092BC028091E1008E7F809345
:10443000E1008091E2008E7F8093E2008091E200B3
:1044400080618093E20042E060E080E00E947B2097
:104450008091F00088608093F0000E94D11DFF9150
:10446000EF91BF91AF919F918F917F916F915F91EC
:104470004F913F912F910F900FBE0F901F90189565
:1044800019BC1092C0020E94CE1D72CF8091E30031
:1044900087FF02C083E0B2CF81E0B0CF1F920F92BE
:1044A0000FB60F921124EF92FF920F931F932F9349
:1044B0003F934F935F936F937F938F939F93AF93AC
:1044C000BF93CF93EF93FF9309EE10E0F801808143
:1044D000C091EC008F70C795CC27C795C82B108270
:1044E00080EFE82EF12CF7018081877F808378941C
:1044F0000E949922F8011082F701808188608083F0
:10450000CF70F801C083FF91EF91CF91BF91AF9130
:104510009F918F917F916F915F914F913F912F91DB
:104520001F910F91FF90EF900F900FBE0F901F9073
:104530001895AAE2B0E0EFE9F2E20C94382481EC9D
:1045400092E0FC0101962091F100208322E0893C59
:104550009207B9F70E94001E8091E80083FF38C0DF
:104560008091C1029091C2029A3090F5E92FF0E05B
:10457000E959FA4D0C942424803889F0823841F5A9
:104580008091C5028F70873018F58093E900809183
:10459000EB0085FB882780F91092E90006C0809126
:1045A000BE02880F9091BD02892B9091E800977F01
:1045B0009093E8008093F1001092F1008091E80060
:1045C0008E7723C0811116C08091C302813011F112
:1045D0008091E80083FF0AC08091E800877F809384
:1045E000E8008091EB0080628093EB00AA96E4E003
:1045F0000C945424823061F78091C302811589F0B4
:104600001092E9008091E800877F8093E8000E9483
:10461000AF20DECF81E0933009F080E08093BE02CE
:10462000EFCF8091C5028F702FEF280F263080F6D4
:104630008093E9002091EB0020FFE2CF933031F42A
:104640008091EB0080628093EB00DACF9091EB00D9
:1046500090619093EB0021E030E0A90102C0440F8B
:10466000551F8A95E2F74093EA001092EA00809184
:10467000EB008860E8CF8111ABCF1091C3021F77A8
:104680008091E3008078812B8093E3008091E800A3
:10469000877F8093E8000E94AF208091E80080FF30
:1046A000FCCF8091E30080688093E30083E01111E8
:1046B00001C082E08093C0028BCF8058823008F026
:1046C00087CF8091C3029091C4028C3D53E095073F
:1046D00099F583E08A838AE289834FB7F894DE01F3
:1046E000139620E03EE051E2E32FF0E050935700B4
:1046F000849120FF03C082958F703F5F8F708A3056
:10470000C8F0895C90E08D939D932F5F243161F711
:104710004FBF8091E800877F8093E8006AE270E0F5
:10472000CE0101960E94C61F8091E8008B7780938E
:10473000E8004ECF805DE6CF6091C5027091C60261
:10474000AE014F5F5F4F0E94001F8C01892B09F45F
:104750003FCF8091E800877F8093E800B80189818E
:104760009A810E942020E0CF803809F031CF8091DB
:10477000E800877F8093E8008091BC028093F1007D
:104780001DCF811125CF9091C302923008F020CF28
:104790008091E800877F8093E8009093BC020E949C
:1047A000AF208091BC02811531F084E08093C0027B
:1047B0000E94EB1D0DCF8091E30087FDF6CF81E0D5
:1047C000F5CF0895CF938091C002811599F0809123
:1047D000E900C091EC008F70C795CC27C795C82B16
:1047E0001092E9008091E80083FD0E949922CF7029
:1047F000C093E900CF910895AA1BBB1B51E107C0EC
:10480000AA1FBB1FA617B70710F0A61BB70B881F60
:10481000991F5A95A9F780959095BC01CD010895EF
:1048200097FB072E16F4009407D077FD09D00E945D
:10483000FC2307FC05D03EF4909581959F4F089589
:10484000709561957F4F0895EE0FFF1F0590F491CD
:10485000E02D09942F923F924F925F926F927F9238
:104860008F929F92AF92BF92CF92DF92EF92FF9280
:104870000F931F93CF93DF93CDB7DEB7CA1BDB0B2C
:104880000FB6F894DEBF0FBECDBF09942A883988D1
:1048900048885F846E847D848C849B84AA84B984D8
:1048A000C884DF80EE80FD800C811B81AA81B981E4
:1048B000CE0FD11D0FB6F894DEBF0FBECDBFED01F8
:1048C0000895002E083090F0982F872F762F652FAF
:1048D000542F432F322F22270850F4CF220F331F9B
:1048E000441F551F661F771F881F991F0A95B2F72F
:1048F000002D089597FD1094002E083098F0085070
:10490000232F342F452F562F672F782F892F912D46
:10491000F4CF159497958795779567955795479513
:10492000379527950A95AAF71124002D0895FC01C3
:104930004150504030F001900616D1F73197CF0129
:104940000895882799270895FB01DC0104C08D9103
:104950000190801921F441505040C8F7881B990BF1
:104960000895FB01DC0102C001900D9241505040BE
:10497000D8F70895F999FECF92BD81BDF89A99278D
:1049800080B50895A6E1B0E044E050E00C94042521
:10499000A8E1B0E042E050E00C940425DC01A40F53
:1049A000B51F4150504048F0CB01840F951F2E9108
:1049B0000E94DF2441505040D0F70895262FF999E6
:1049C000FECF92BD81BDF89A019700B4021639F06E
:1049D0001FBA20BD0FB6F894FA9AF99A0FBE08953F
:1049E0000396272F0E94DF240E94DE24252F0E9499
:1049F000DF24242F0C94DF240196272F0E94DF242C
:104A00000C94DE24DC01CB01FC01F999FECF06C039
:104A1000F2BDE1BDF89A319600B40D92415050407C
:104A2000B8F70895F894FFCFA704A704EB04EB04AC
:104A30004F056C05D604D6047105ED05FE05FE058F
:104A40008F11931198119D11A211A711AC11B111E1
:104A5000B611BB11C011C5163617CD1697169B1689
:104A6000D1169F16D516E116AB162F17AF16E51601
:104A7000B316E9160E17B716ED161517BD16F31671
:104A8000FB16A316D916A716DD16C116F7160517BD
:104A90001E172D179116C9163D17DC17E217E517DB
:104AA000EB1700180018001800180018001800185C
:104AB0000018EE17F317F717FD170E18141818182B
:104AC000351A3B1A241A2F1A411A471A4D1ABC22BA
:104AD000E222E822E222E8223B235D23E822B423FB
:024AE000C123F0
:104AE2002C024C02000600060601280850011E0A8C
:104AF200140100000100621CA71DA01D991D921D3A
:104B0200E200E900EA00B500B600B700CD0083017B
:104B1200CC008A019201940121022302240225027F
:104B2200260227022A02B300B4006F0070009F0120
:104B3200CB019F02A002E200E900EA00B500B60044
:104B4200B700CD008301CC008A01920194012102B9
:104B5200230224022502260227022A02B300B400FD
:104B62006F0070009F01CB019F02A002676636357D
:104B7200F0F1F4F5F600010202020505050505054E
:084B8200D515D715E215FB154E
:00000001FF
